:020000040000fa
:080000000002040000000000f2
:020000040000fa
:1000080090020000900200009002000090020000a0
:100018009002000090020000900200009002000090
:10002800900200009002000090020000d219000027
:100038009002000090020000900200006e1a00007a
:100048009002000090020000900200009002000060
:100058009002000090020000900200009002000050
:100068009002000090020000900200009002000040
:100078009002000090020000900200009002000030
:100088009002000090020000900200009002000020
:100098009002000090020000900200009002000010
:1000a8009002000090020000900200009002000000
:1000b80090020000900200009002000090020000f0
:1000c80090020000900200009002000090020000e0
:1000d80090020000900200009002000090020000d0
:1000e80090020000900200009002000090020000c0
:1000f80090020000900200009002000090020000b0
:10010800900200009002000090020000900200009f
:10011800900200009002000090020000900200008f
:10012800900200009002000090020000900200007f
:10013800900200009002000090020000900200006f
:10014800900200009002000090020000900200005f
:10015800900200009002000090020000900200004f
:10016800900200009002000090020000900200003f
:10017800900200009002000090020000900200002f
:10018800900200009002000090020000900200001f
:10019800900200009002000090020000900200000f
:1001a80090020000900200009002000090020000ff
:1001b80090020000900200009002000090020000ef
:1001c80090020000900200009002000090020000df
:1001d80090020000900200009002000090020000cf
:1001e80090020000900200009002000090020000bf
:0801f8009002000090020000db
:020000040000fa
:10020800900200009002000090020000900200009e
:10021800900200009002000090020000900200008e
:10022800900200009002000090020000d219000025
:100238009002000090020000900200006e1a000078
:10024800900200009002000090020000900200005e
:10025800900200009002000090020000900200004e
:10026800900200009002000090020000900200003e
:10027800900200009002000090020000900200002e
:10028800900200009002000090020000900200001e
:10029800900200009002000090020000900200000e
:1002a80090020000900200009002000090020000fe
:1002b80090020000900200009002000090020000ee
:1002c80090020000900200009002000090020000de
:1002d80090020000900200009002000090020000ce
:1002e80090020000900200009002000090020000be
:1002f80090020000900200009002000090020000ae
:10030800900200009002000090020000900200009d
:10031800900200009002000090020000900200008d
:10032800900200009002000090020000900200007d
:10033800900200009002000090020000900200006d
:10034800900200009002000090020000900200005d
:10035800900200009002000090020000900200004d
:10036800900200009002000090020000900200003d
:10037800900200009002000090020000900200002d
:10038800900200009002000090020000900200001d
:10039800900200009002000090020000900200000d
:1003a80090020000900200009002000090020000fd
:1003b80090020000900200009002000090020000ed
:1003c80090020000900200009002000090020000dd
:1003d80090020000900200009002000090020000cd
:1003e80090020000900200009002000090020000bd
:0803f8009002000090020000d9
:020000040000fa
:100400008fac20000ebf22000e018800000000000b
:100410000c000700a0cc2100010020001100070003
:10042000000020000000e000020032000000020096
:10043000000000002e170200000000000040da005b
:100440000000fe004440a900800020000000e00001
:100450000300320000002000a00188004440a800f2
:100460000000060091018800800078000000eb0089
:1004700015003700e280400032a0b4009101ba00bc
:10048000e280400032a0b4009102ba00e280400055
:1004900032a0b4000002eb00472bde00f507b200eb
:1004a000602ce10004003a000059eb008301e900f0
:1004b000fdff3e00040037006128e100010032002a
:1004c0000082eb00040007001101ba000200e00006
:1004d000e8ff3a00000006003159ba008301e90044
:1004e0000c0032002159ba008301e90008003200f3
:1004f0000400e00003003a00e280400032a0b400b3
:10050000f5ff370011d9ba008301e900faff3a007c
:100510008100e800e180400032a0b4000000060045
:100520000040da000000fe000200240030108000cd
:1005300061006000fdff3a0031108000e48060003f
:10054000808f5000f9ff3a00301080006800600092
:10055000810f5000f5ff3a0031108000e28060000a
:10056000808f5000f1ff3a00301080007000600072
:10057000810f5000edff3a00411080008280600042
:10058000808f5000e9ff3a00000006000662a800d4
:100590003010800068006000fdff3a0008c2a9002a
:1005a0000010800000000600881f78000080fb001b
:1005b00010108800411080000108b20000c0eb005c
:1005c0000b003a0000002400481080000004640082
:1005d000fdff3a00d4ff0700411080000000280012
:1005e00000806000880f500001003200e0cfb300af
:1005f0004f0478000000060006a2a8000682a800aa
:10060000000006000622a800000006000602a8005e
:10061000000006000642a8000000060091118000bc
:100620000110b20010c0b300010032000040eb0026
:100630000000060081118000e6806000e68f500017
:1006400001003200f00fb200a01188000000060087
:1006500003f0a200889fbe008a9fbe008c1f780016
:10066000b8010700bf0133006450e1004f003200c1
:100670006420e1005200320003826c0007003b005e
:100680000905d0000306d000820f54000c065d005f
:100690000200390002003200890178000306780068
:1006a0008582550004003d000003fd008103fd002c
:1006b0008502ea008b854200840f720002003b0035
:1006c00060001000e08018006011b8000005eb0029
:1006d0007a28e1000a00390006007800c75ddd00d5
:1006e000f707b200878075002d0037008281710006
:1006f0000a017800610560008180d1000080d3008c
:100700008502e900f9ff3b000604400087844800a9
:1007100002003b0060041400e0841c000988a30070
:10072000070032008a8171008281710061016400da
:100730008904d1000884d3008b05e8001700370036
:100740000978a30013003a000b00e0001300340006
:100750008b05e9000804440089844c000a447400b5
:100760000978a3000d003a000b00e00007003400f8
:100770008b05e9000804440089844c0001003a001c
:100780000b0020000978a300f7ff32000001eb0006
:1007900002003700828171000a0178002e010700f3
:1007a0000cf0a70001f0a000770137006420e10001
:1007b00002003a00838f6c00770133000801be000d
:1007c0000200be0070013700889fbe008a9fbe00f5
:1007d0008c1f78005b0107001002200002003b0024
:1007e000305688005f0137008a0062006408e1002b
:1007f00002003a0030568800670137006108e100c6
:10080000fcff32000800be000304780072000700fd
:1008100001f0a1000900070008f0a600040037005d
:100820000001be0091042400b0fd200088ff0700f5
:1008300009f0a70001f0a20053013700889fbe0015
:100840008a9fbe008c9fbe000004be0028010700e6
:100850000800be00890678006420e1000800390025
:10086000040032000160a00012022000325688000d
:100870005300370091fc2300b0fd20004e003700ec
:100880000006eb0009f0a10003f82300020020009d
:100890000800be00a10007000600340001f8230094
:1008a000000020000801be004b0007000004be004d
:1008b0002c0020000800be0093e82300320a230029
:1008c00096000700120034000801be00d1fd23008d
:1008d000703d2b005fff07000005be00b3f323004f
:1008e000f27a26000800be002e01070003f823005c
:1008f0000200200056ff07000801be0055ff070058
:100900000a01be00340007000004be000c06e80027
:100910000800be0001f0a10002002000039823009f
:100920007e0007000800be00160035000801be006a
:100930001c0107000005be0032cd2c0043fb230044
:1009400044ff0700809fbe001269280003d52b00da
:100950000a00be0013010700620f210013ef2b00f5
:100960003cff07000a01be000e0107004f01be0058
:10097000190007000801be000a0107000801be00b7
:1009800034ff07000c00e0000b0032000c10a70041
:1009900001f0a200b2fd200093fc23006260e100a0
:1009a0000400320022a9200063f023000c10a700ed
:1009b00063f8230027ff07000df0a70001f0a20055
:1009c0004f06be004f05be004f04be0000000600eb
:1009d0000081eb0027013700889fbe008a9fbe0080
:1009e0008c1f7800d7000700de00330003866c0000
:1009f0006450e1002e0032006420e1003300320038
:100a00006150e1002f0032006120e100310032002e
:100a100085855500eb07b000090020000804200080
:100a2000050037000804440089844c000a003100a6
:100a30000603430087834b000001530081815b0064
:100a4000f8ff33000203be000800a00008044400c1
:100a500089844c00f6ff3900c639dd00830173003c
:100a600001003200130020008904d1000884d30063
:100a70000998a300050032000800a7000300a000a9
:100a80008904d1000884d3008b05e8008904d100d3
:100a90000884d3000001eb000281d2006e00070041
:100aa00001f0a1000cf0a70001f0a000b600370093
:100ab0006420e100b80032000801be000200be0060
:100ac000f7ff37006120e100b30032006000b8009a
:100ad000f3ff37000000200001f82700f0ff370087
:100ae000839f68000100e00002003d0060001000ec
:100af000e08018000300e00002003d0060011100ea
:100b0000e0811900460107004f00e00002003b00b1
:100b100060001000e08018000000060014002000b3
:100b20004f013700f4ff2f004d0137000001be00d8
:100b30006f0007000470a70003f0a10003f8a300f2
:100b400013003a006509b1001000320009003500b9
:100b50006928e100020035000100280000000500be
:100b600000004000818048008502e900fcff3a0057
:100b700000000600f88f4200050035008100d1001a
:100b80000080d3008502e800fcff3a000000060068
:100b90008000eb0000000500881f78000104780049
:100ba0000100e00005003d0060001000e08018003a
:100bb00002003b0001f02c00030037000400070096
:100bc00008f0a70001f0a0004f0478000000060024
:100bd000889fbe008a9fbe00010578000000e000eb
:100be000180032000004be006011b8006b0920003c
:100bf0000982cf00020039000882cf000441b00012
:100c0000694252000e00320008003b0082817100f0
:100c1000610164008904d1000884d3008b05e800d9
:100c20000442e800f9ff3a000500370008044400d8
:100c300089844c008b05e9000442e900fbff3a007f
:100c4000050007004f05be004f04be00000006006f
:100c5000040020000201370081002000618055005f
:100c60000b003d000b00200061fe2f000100e100a1
:100c70001d00340082817100610164008904d1008b
:100c80000884d3000000e800faff3a007100200059
:100c9000610064000300700002006000090032007f
:100ca00061044400e0844c000988a500050032007e
:100cb0008b05e8006808e10002003a008904d100d1
:100cc0000884d300f20f20000258e10005003d0027
:100cd000c75ddd00f907b200898075000800780063
:100ce000000006000bf827008b00780000000500cc
:100cf000c70ade00f107b200f50fb20008003200ab
:100d0000e1cf4200020032000170a0002400050083
:100d1000810f700001003200040805004400050046
:100d2000810f700002003a00140005008502e900fe
:100d30000000400081c04800fcff3b000170a000a3
:100d4000240005000004be00e9ff07000003be0008
:100d50000405be000200be00e5ff0700844f7500d9
:100d6000000006000200be006450e10005003600ed
:100d70006420e100020036000968a30001003a0087
:100d80000800be000160a0004f0678004f05be00bd
:100d90004f04be0000000600f0ff2f00f1ff270007
:100da000f9ff3700889fbe008a9fbe008c1f780025
:100db000e4ff0700ebff330003866c006450e100a2
:100dc000240032006420e100270032006150e1007d
:100dd000220032006120e100210032008b854200b8
:100de000eb07b1000134b800003ab8000804420033
:100df00089844a00013ab8000030b8008880400079
:100e000009014a00040033000000400081804800ce
:100e1000020149008b05e900c909dd00830170006a
:100e20000100320013002000c814de004814dd0069
:100e30004709de001200b200c808de000884700016
:100e400085ff070001f0a1000cf0a70001f0a00051
:100e5000cdff37006120e100cfff32000801be0066
:100e60000200be00f7ff37006150e100fcff3a00ce
:100e7000c9ff3700889fbe008a9fbe008c9fbe00be
:100e8000820578000004be0099ff07000800be003c
:100e90006420e1000700390002003a00f1ff27005a
:100ea000f0ff2f000160a0001202200032568800df
:100eb000550037006120e10003003a000b00a70055
:100ec00001f823005000370001f0a10002002100ca
:100ed0009364240011ff07000800be0004003500e1
:100ee000b2fd2000930c2400990007000004be000e
:100ef0000005eb000b00a6004f0dde0001f0a10085
:100f00000004be0032982f0023ea2300a5ff07004b
:100f10000001eb0003f023000b00a70003f82300ff
:100f2000ccfd0700690007000000a7000a00a2002e
:100f300019ff07000b00e000030032000200200050
:100f400003f02300c2fd070001f0a2000006be006e
:100f5000020020009304240092ff07000801be0055
:100f6000bcfd0700809fbe000c00be0022a22a002c
:100f7000d3a723008bff07004f01be00b5fd07007c
:100f80000004be0001f0a10002002000039823002d
:100f9000e2fe07000800be00190035000001be0097
:100fa00080ff07000006be00b2c52900e3622300ef
:100fb0007cff070022222b00f3942b00a5fd0700e5
:100fc0000c01be0077ff0700e273280083c02300f6
:100fd000a0fd07000c01be0072ff070042aa2a0014
:100fe000a3e22b009bfd07000c01be006dff070074
:100ff0000801be006bff07000801be0095fd070059
:101000000a00a70001f0a2004f06be004f05be0077
:101010004f04be00000006000001eb0095ff370002
:101020006022b800060220000000d0008180d200bb
:101030000482d2008582d2000000a0000202520089
:1010400083825a00030031000202420083824a0078
:101050000000a1000603e900f3ff3a0000000600cb
:10106000889fbe008a9fbe00841f780035ff07005e
:101070004f00780011003300f0ff2f00838f6c00c9
:1010800006003b00040565000a00a70008003700c1
:1010900009f0a6001000200008003700820f54005d
:1010a000838f5c00030039001000200001003e0027
:1010b0000000200009f0a7000000ea004f05be0074
:1010c0004f04be000000e000000006000001be006a
:1010d00007ff07000470a70003f0a1006509b10035
:1010e000160032000d0035006828e10006003500ca
:1010f000f0ff2f00f1ff27000300e00013003b008a
:101100000100280000000500000040008180480028
:101110008502e900fcff3a0008003700f88f420022
:1011200002003c008000eb00000005008100d100bf
:101130000080d3008502e800fcff3a000300e000d5
:1011400002003b0060001000e08018000000060074
:101150000400200000003700889fbe008a9fbe0068
:101160008c1f78004f26dd00f6fe0700fdfe3300e1
:101170006120e100430032006250e10041003e0086
:101180003e0039006420e1003c0032000582550039
:101190000f003b000402e80038003a00800f5300c3
:1011a000818f5b00350034000800be0003f0a10011
:1011b00001f0a60003f0a0000cf0a70025fd070039
:1011c000f1fe37000603430087834b000c464600c0
:1011d0000005530081855b00020033000a03be0056
:1011e0000c00a0000402e900f6ff3b008505780032
:1011f0000602430087824b0004003a006000b800fa
:1012000009f0a70001f0a000dffe37000002520045
:1012100081825a000704e000040033000603430003
:1012200087834b008b05e900faff3700090578003a
:101230000604be000203be006011b80086fe07006f
:10124000e00f5200e08f5a000700350002003c001a
:101250000c08a300040032000601be0003f0a00049
:101260000cf0a700fbfc07000a85680001f0a10054
:101270000af0a70001f0a000c3fe37000800be007e
:10128000c1fe3700100220000cf0a6003056880086
:10129000c1fe37000102780001003700030078002a
:1012a000809fbe00110009000282d8000002780071
:1012b0004f00be008001e800e00f5200f7ff3a0047
:1012c0008449780000027800110009008280d8006b
:1012d0000002fd008101780084007800e9cf510010
:1012e00001003400e7c1410005c3b30005d041004f
:1012f000e00f5200f3ff3a0000000600881f78005c
:1013000000047800e08f500005003d00880178005f
:10131000d0c2b300805978008100ea000100370094
:101320008801780003007800daff070008007800e1
:101330004f047800000006008001780002003700aa
:10134000b1597800040178000202e900e00f510071
:10135000fbff3a0000000600800178000200370021
:1013600081597800040178000202e900e00f510081
:10137000fbff3a0000000600000178000100370082
:101380000201e8008041eb0092cf1100fcff3a001f
:10139000b141780003597800e0cf5100fcff3a00da
:1013a00000000600800078000041eb00b14f110002
:1013b000fdff3a000080ea000080400000000600c7
:020000040000fa
:1013c0002c0000000d0a0000000000000c0a0000c4
:020000040000fa
:1013d0001200fa00881f7800200798003107980053
:1013e0004207980053079800640798007507980013
:1013f000060f980018c0b3006011b8002e009000ce
:10140000be009000c7fd0700e00f500001003d0046
:101410000044eb00e04f54006d00320018c0b300f0
:101420006011b8004e009000de009000bdfd070086
:10143000e00f500001003d000044eb00e04f54007d
:101440001d00320002002000832c24004e0090007a
:10145000de00900053fe0700008fbe000e099000d2
:101460006000b8000089be000e0890001e01be009a
:10147000220098003300980002002000832c2400f2
:101480002e009000be00900046fe07001e01be0028
:1014900070fc07000e09900040019800510198006f
:1014a0000e09900000002000010424006001980053
:1014b00071019800b400370018c0b3006011b80083
:1014c0006e009000fe00900096fd0700e00f5000b7
:1014d00001003d000044eb00e04f54001d003200cd
:1014e00002002000832c24002e009000be009000fb
:1014f0002cfe0700008fbe0002002000832c240079
:101500006e009000fe00900026fe07001e01be0047
:1015100050fc07000e0990000089be000e099000e3
:101520006000b80020019800310198000e0890007a
:101530001e01be0042009800530098000e09900062
:1015400000002000010a2400600198007101980049
:101550008d0037004e009000de00900001f0a200e8
:1015600002002000832c24000efe0700008fbe0026
:101570000e0890003e1878002e1078000e0990009a
:101580006000b80020019800310198006e009000c2
:10159000fe00900001f0a20002002000832c240035
:1015a00000fe07001e01be002afc07000e09900085
:1015b00040019800510198000e09900000002000a1
:1015c00001f8230060019800710198006e00370057
:1015d00018c0b3006011b8004e009000de0090000b
:1015e00050fd0700e00f500001003d000044eb00fb
:1015f000e04f54004600320018c0b3006011b8003c
:101600006e009000fe00900046fd0700e00f5000c5
:1016100001003d000044eb00e04f54001d0032008b
:1016200002002000832c24006e009000fe00900039
:10163000dcfd0700008fbe000e0890003e18780009
:101640002e10780002002000832c24004e00900011
:10165000de009000d3fd07001e01be00fdfb070069
:101660000e09900020019800310198000e099000a9
:101670006000b80040019800510198000e099000e8
:1016800000002000010c2400600198007101980006
:101690003d0037006e009000fe00900001f0a200b7
:1016a00002002000832c2400befd0700008fbe0036
:1016b0000e0990006000b8000089be002e00900066
:1016c000be00900001f0a20002002000832c240044
:1016d000b4fd07001e01be00defb07000e099000ee
:1016e00020019800310198000e0890001e01be00f4
:1016f00042009800530098000e099000000020005e
:101700000100240060019800710198001e0037005c
:101710002e009000be00900001f0a2000200200008
:10172000832c24009ffd0700008fbe004e00900018
:10173000de00900001f0a20002002000832c2400b3
:1017400098fd07001e01be00c2fb07000e099000b5
:101750000089be000e0890001e01be002200980005
:10176000330098000e0990006000b8004001980016
:10177000510198000e09900000002000010824008b
:1017800060019800710198004f0478000080fa0011
:10179000000006000600fa00008fbe002207980035
:1017a00002002000333024001e00be008afc070027
:1017b00052a32f00e3c823007afd07000200200097
:1017c000030a240077fd07002e0190000089be0067
:1017d0000080fa00000006000600fa00008fbe003c
:1017e0002207980032332300332024001e00be005d
:1017f00079fc07002e0190000089be000080fa00ed
:10180000000006000c00fa00889fbe008a1f7800c6
:101810002007980031079800420798005307980066
:101820002e009000be009000040a0700e04f500018
:1018300005003a004e009000de009000ff0907000e
:10184000e04f500004003200105580002155800008
:10185000008fbe00570037002e009000be009000a1
:10186000d5090700e04f5000270032004e009000dd
:10187000de009000d0090700e04f50002200320047
:1018800018c0b3006011b8004e009000de00900058
:10189000a4fc0700e00f500001003c000044eb00f6
:1018a000e04f5400030032000800200009f8230034
:1018b000020037000800200009f82b001ac0b3000e
:1018c0006011b8002e009000be00900095fc07004b
:1018d000e00f500001003c000045eb00e04f5500d8
:1018e000030032000000200001f82300020037004e
:1018f0000000200001f82b000801be00b2fb070029
:10190000008fbe002b0037006011b8004e00900021
:10191000de00900081fc0700e00f50001f003a003d
:1019200018c0b3006011b8002e009000be009000f7
:101930007cfc0700e00f500001003c000044eb007d
:10194000e04f540004003200b0fd200091fc230061
:10195000008fbe001700370018c0b3006011b80038
:101960002e009000be0090006cfc0700e00f5000bd
:10197000010035000044eb00e04f54000400320049
:10198000b0fd200091fc2b00008fbe000900370045
:101990006000b800008fbe00060037004e019000c6
:1019a000de0190002e009000be00900086fb070034
:1019b000008fbe001e00be004f0578004f04be0021
:1019c0000080fa00000006008a00fa00889fbe002e
:1019d000c04b8000d14b8000101f9800211f980041
:1019e000604b8000714b8000000f9800110f980031
:1019f000404b8000514b8000301f9800411f9800e1
:101a0000c29820003e189000ce18900072ff070088
:101a1000e04a8000f14a8000501f9800611f980042
:101a2000829820005e189000ee1890006aff070070
:101a3000404c8000514c8000644c8000754c80000c
:101a40000001be000400be006eff0700701f98007a
:101a500001279800c04a8000d14a800010279800d2
:101a600021279800029920001e209000ae209000af
:101a700048ff070004cabf00e04f500005003200d5
:101a8000a04e8000b14e8000200f9800310f9800ca
:101a90000f0037000445800015458000804c800011
:101aa000914c80000001be000400be00bdfc070098
:101ab0000002be00a04e8000b14e80000001be00ba
:101ac0000400be00e3fa0700200f9800310f9800d1
:101ad00005cabf00e04f500005003200c04e800034
:101ae000d14e8000400f9800510f98000f00370032
:101af0004445800055458000804c8000914c80001a
:101b00000001be000400be00a6fc07000002be00eb
:101b1000c04e8000d14e80000001be000400be0017
:101b2000ccfa0700400f9800510f98007e199000e2
:101b30008e2190002e089000be089000c4fa070085
:101b40004e099000de099000c2fa07000e099000cd
:101b50009e099000bffa070030279800412798009f
:101b600080408000914080003e219000ce21900076
:101b70008cfc07005027980061279800e040800007
:101b8000f14080006011b80086fc070070279800c3
:101b9000012f980080458000914580003e219000f3
:101ba000ce2190007ffc07000002be00a040800014
:101bb000b14080000001be000400be0079fc0700b7
:101bc0000002be00204e8000314e80000001be00a9
:101bd0000400be009ffa07000004be007e219000b2
:101be0008e2990005e209000ee20900099fa070068
:101bf0000001be000800be0096fa07000002be0009
:101c000005f0a100004180001141800018c0b30020
:101c10000001be000400be00c0fb0700e00f500042
:101c2000010035000044eb00e04f54000400320096
:101c30003e209000ce209000008fbe0003003700b1
:101c40002040800031408000008fbe0006cabf00e7
:101c5000e04f500005003200a04d8000b14d8000e3
:101c6000600f9800710f98000c0037002041800031
:101c7000314180001e01be004afc07000002be0088
:101c8000a04d8000b14d80000001be000400be00e8
:101c900070fa0700600f9800710f9800a040800054
:101ca000b14080006e099000fe0990003dfc0700e5
:101cb0005e219000ee21900066fa07007e219000e0
:101cc0008e29900063fa0700102f9800212f9800aa
:101cd000604180007141800018c0b3001e2990004f
:101ce000ae2990008dfb0700e00f5000010034008a
:101cf0000044eb00e04f54000300320060418000dc
:101d000071418000100037008041800091418000c7
:101d100018c0b3001e299000ae29900081fb070077
:101d2000e00f500001003d000044eb00e04f540084
:101d300003003200804180009141800002003700a2
:101d40001e289000ae2890007e1990008e219000f1
:101d500040fa070070279800012f9800a0418000ea
:101d6000b14180007e2190008e2990000dfc07007b
:101d7000302f9800412f98006000b800502798003d
:101d800061279800c0418000d14180007e219000f1
:101d90008e29900003fc07000002be00e041800095
:101da000f14180000001be000400be00fdfb070001
:101db0000002be00404e8000514e80000001be0077
:101dc0000400be0023fa07000004be005e2190005c
:101dd000ee2190003e289000ce2890001dfa0700ca
:101de0000001be000800be001afa07000002be0093
:101df00005f0a100204280003142800018c0b300ed
:101e00000001be000400be0044fb0700e00f5000cc
:101e1000010035000044eb00e04f540005003200a3
:101e20007e2090008e2890002007980031079800af
:101e30000400370000408000114080002007980017
:101e40003107980007cabf00e04f5000050032007c
:101e5000c04d8000d14d80000017980011179800e8
:101e60000d00370040428000514280002e0190005a
:101e7000be019000cbfb07000002be00c04d8000f9
:101e8000d14d80000001be000400be00f1f9070042
:101e90000017980011179800e0418000f141800080
:101ea0000e1190009e119000befb07003e2990008d
:101eb000ce299000e7f907005e219000ee21900006
:101ec000e4f90700502f9800612f980080428000ad
:101ed0009142800018c0b3005e299000ee29900066
:101ee0000efb0700e00f5000010034000044eb003f
:101ef000e04f540003003200804280009142800095
:101f000010003700a0428000b142800018c0b3002a
:101f10005e299000ee29900002fb0700e00f5000c0
:101f200001003d000044eb00e04f5400030032008c
:101f3000a0428000b1428000020037005e2890007d
:101f4000ee2890000e0990009e099000c1f907004c
:101f500070279800012f98007e2090008e28900016
:101f60002dfc0700302f9800412f98007e20900014
:101f70008e28900096fa070070279800012f98008d
:101f80007e2190008e2990001e189000ae189000bf
:101f900084fb07000004be00804a8000914a800054
:101fa0003e299000ce2990007efb07000001be0074
:101fb0000800be00a6f90700701f980001279800ce
:101fc000804a8000914a80007e2190008e299000f6
:101fd00074fb07000004be003e299000ce2990004b
:101fe0001e189000ae1890006efb07000001be00a6
:101ff0000800be0097f90700302798004127980095
:102000000000eb00001f98003b0037002107200074
:102010008e8040000e1890004200dd0000814000dc
:102020006000b8000089be00210720008e804000bb
:102030000e1890004200dd00008040001004be0039
:102040000e189000d002b000c200dd000080200019
:10205000008040001000be007e1990008e2190008c
:1020600050fb07000001be000800be0079f9070020
:10207000230720008e8141000e1990004211dd00df
:10208000028141000089be00210720008e804000af
:102090000e1890004200dd00008040001004be00d9
:1020a0000e18900063004000d002b000c200dd00b6
:1020b00000802000008040001000be003e21900003
:1020c000ce21900037fb07000001be000800be00d3
:1020d00060f90700230720008e8141000e1990004f
:1020e0004211dd00028141000089be000e189000ff
:1020f0000000e800001f98000e189000e20f50004a
:10210000c2ff3400200720000e0040004001900074
:10211000d0019000200720000e004000b000900089
:1021200020009000240720000e0242001404be008c
:10213000469920000202be000001be000800be0059
:10214000a3fc0700e04c8000f14c8000a04f880009
:10215000b14f8800c04c8000d14c8000604f880097
:10216000714f8800204b8000314b8000702f980009
:1021700001379800a04a8000b14a800010379800cb
:1021800021379800029820001e309000ae30900059
:1021900091fd07006446800075468000004c800079
:1021a000114c80000001be000400be00fdfa0700d3
:1021b000000f9800110f9800e04a8000f14a80005b
:1021c0003037980041379800c29720003e30900089
:1021d000ce30900080fd0700e04b8000f14b800086
:1021e0000001be000e0890009e08900085fd0700cb
:1021f0003027980041279800a04b8000b14b800009
:102200005037980061379800429820005e30900067
:10221000ee3090005ffd070008cabf00e04f50009d
:1022200005003200e04e8000f14e8000000f980063
:10223000110f98000f0037008446800095468000fb
:10224000204c8000314c80000001be000400be0024
:10225000d4fa07000002be00e04e8000f14e80007c
:102260000001be000400be00faf80700000f98004d
:10227000110f980009cabf00e04f5000050032005e
:10228000004f8000114f80002017980031179800f0
:102290000f003700c4468000d5468000204c8000e7
:1022a000314c80000001be000400be00bdfa0700f2
:1022b0000002be00004f8000114f80000001be00f0
:1022c0000400be00e3f807002017980031179800bb
:1022d0003e219000ce2190000e0890009e089000b4
:1022e000dbf807002e119000be119000d9f807000e
:1022f0007e2990008e319000d6f80700701f98005c
:1023000001279800c0428000d14280007e199000d1
:102310008e219000a3fa070070279800012f9800e3
:1023200020438000314380006011b8009dfa07000f
:1023300050279800612798000047800011478000cf
:102340007e1990008e21900096fa07000002be00d0
:10235000e0428000f14280000001be000400be00a7
:1023600090fa07000002be00604e8000714e8000af
:102370000001be000400be00b6f807000004be0065
:102380005e219000ee2190007e2090008e2890002b
:10239000b0f807000001be000800be00adf807005d
:1023a0000002be0005f0a1004043800051438000c0
:1023b00018c0b3000001be000400be00d7f907003a
:1023c000e00f5000010035000044eb00e04f5400e6
:1023d000050032007e1890008e2090004007980083
:1023e0005107980004003700604080007140800071
:1023f00040079800510798000acabf00e04f5000fc
:1024000005003200e04d8000f14d8000401798003b
:10241000511798000d003700604380007143800021
:102420004e019000de0190005efa07000002be003f
:10243000e04d8000f14d80000001be000400be00b0
:1024400084f807004017980051179800e042800078
:10245000f14280004e119000de11900051fa070009
:102460007e2190008e2990007af807005e2190006e
:10247000ee21900077f8070070379800013f980030
:10248000a0438000b143800018c0b3007e319000ab
:102490008e399000a1f90700e00f500001003400d0
:1024a0000044eb00e04f540003003200a0438000e2
:1024b000b143800010003700c0438000d14380004a
:1024c00018c0b3007e3190008e39900095f9070056
:1024d000e00f500001003d000044eb00e04f5400cd
:1024e00003003200c0438000d14380000200370067
:1024f0007e3090008e3890003e219000ce219000da
:1025000054f8070070279800012f9800e0438000de
:10251000f14380007e2190008e29900021fa07006f
:10252000302f9800412f98006000b8005027980085
:102530006127980000448000114480007e219000b3
:102540008e29900017fa07000002be002044800088
:10255000314480000001be000400be0011fa0700f3
:102560000002be00804e8000914e80000001be003f
:102570000400be0037f807000004be005e21900092
:10258000ee2190003e289000ce28900031f8070000
:102590000001be000800be002ef807000002be00c9
:1025a00005f0a100604480007144800018c0b300b1
:1025b0000001be000400be0058f90700e00f500003
:1025c000010035000044eb00e04f540005003200ec
:1025d0007e2090008e289000600798007107980078
:1025e00004003700404080005140800060079800a0
:1025f000710798000bcabf00e04f50000500320081
:10260000004e8000114e80006017980071179800ee
:102610000d00370080448000914480006e019000de
:10262000fe019000dff907000002be00004e8000ae
:10263000114e80000001be000400be0005f8070036
:102640006017980071179800204480003144800082
:102650006e119000fe119000d2f907003e29900003
:10266000ce299000fbf707000001be005e2090001d
:10267000ee209000f7f70700502798006127980098
:10268000c0448000d144800018c0b3005e21900097
:10269000ee21900021f90700e00f50000100340006
:1026a0000044eb00e04f540003003200c0448000bf
:1026b000d144800010003700e0448000f1448000e5
:1026c00018c0b3005e219000ee21900015f90700bc
:1026d000e00f500001003d000044eb00e04f5400cb
:1026e00003003200e0448000f14480000200370023
:1026f0005e209000ee2090007e2990008e319000a8
:10270000d4f7070070279800012f98007e209000d2
:102710008e28900040fa0700302f9800412f980033
:102720007e2090008e289000a9f80700702798005e
:10273000012f98007e2190008e2990001e18900095
:10274000ae18900097f907000004be00804b80008f
:10275000914b80003e299000ce29900091f907000e
:102760000001be000800be00b9f70700701f980006
:1027700001279800804b8000914b80007e219000c3
:102780008e29900087f907000004be003e299000c2
:10279000ce2990001e189000ae18900081f9070015
:1027a0000001be000800be00aaf70700302798000d
:1027b000412798000000eb00001f98003b00370005
:1027c000e10720008e8040000e1890004200dd00de
:1027d000008140006000b8000089be00e1072000d1
:1027e0008e8040000e1890004200dd000080400006
:1027f0001004be000e1890009003b000c200dd006f
:1028000000802000008040001000be007e19900073
:102810008e21900063f907000001be000800be0091
:102820008cf70700e30720008e8141000e1990000d
:102830004211dd00028141000089be00e107200055
:102840008e8040000e1890004200dd0000804000a5
:102850001004be000e189000630040009003b0000a
:10286000c200dd0000802000008040001000be009b
:102870003e219000ce2190004af907000001be00e1
:102880000800be0073f70700e30720008e814100b7
:102890000e1990004211dd00028141000089be0046
:1028a0000e1890000000e800001f98000e1890001d
:1028b000e20f5000c2ff3400e00720000e0040008d
:1028c00040019000d0019000e00720000e00400081
:1028d000b000900020009000e40720000e024200ab
:1028e0001404be00469a20000202be000001be0091
:1028f0000800be00b6fa0700604d8000714d8000f0
:10290000e04f8800f14f8800a04c8000b14c80005f
:10291000c04f8800d14f8800004d8000114d8000cd
:10292000804f8800914f8800404d8000514d8000bd
:10293000204f8800314f8800204d8000314d8000ad
:102940000050880011508800804d8000914d80001b
:10295000404f8800514f88000040eb0004eab70068
:102960000445800015458000804c8000914c80001b
:102970000001be000400be000af907002e09900005
:10298000be09900033f70700a04e8800b14e8800c2
:102990000040eb0005eab700444580005545800043
:1029a000804c8000914c80000001be000400be00fd
:1029b000fcf807004e099000de09900025f707009b
:1029c000c04e8800d14e88001e289000ae2890008e
:1029d000204e8800314e88000040eb0006eab70028
:1029e00020418000314180001e01be00edf807004b
:1029f0006e099000fe09900016f70700a04d8800b0
:102a0000b14d88005e289000ee289000404e88006e
:102a1000514e88000040eb0007eab70040428000ba
:102a2000514280002e019000be019000ddf80700a9
:102a30000e1190009e11900006f70700c04d88000f
:102a4000d14d88000040eb0008eab70084468000c2
:102a500095468000204c8000314c80000001be0073
:102a60000400be00cff807000e0990009e099000f8
:102a7000f8f60700e04e8800f14e88000040eb00b9
:102a800009eab700c4468000d5468000204c80008b
:102a9000314c80000001be000400be00c1f80700f8
:102aa0002e119000be119000eaf60700004f88003a
:102ab000114f88007e3090008e389000604e880064
:102ac000714e88000040eb000aeab70060438000c6
:102ad000714380004e019000de019000b1f80700c4
:102ae0004e119000de119000daf60700e04d8800ec
:102af000f14d88005e209000ee209000804e88000e
:102b0000914e88000040eb000beab7008044800043
:102b1000914480006e019000fe019000a1f8070032
:102b20006e119000fe119000caf60700004e88005a
:102b3000114e88004f04be000080fa00000006001d
:102b40000000fa0040002000f0040700304f84002d
:102b50008000eb0001087800820320008000eb0079
:102b6000c0972000fcf90700820520008000eb00e0
:102b7000409b2000f8f907006000b800604a880018
:102b8000714a88006000b800804a8800914a880035
:102b90006000b800a04a8800b14a88006000b80010
:102ba000c04a8800d14a88006000b800e04a880026
:102bb000f14a88006000b800004b8800114b880083
:102bc0006000b800204b8800314b88006000b800de
:102bd000404b8800514b88006000b800604b880073
:102be000714b88006000b800804b8800914b8800d2
:102bf0006000b800a04b8800b14b88006000b800ae
:102c0000c04b8800d14b8800e0478000f14780002e
:102c1000604a8800714a880000488000114880009e
:102c2000204f8800314f88002048800031488000c4
:102c3000404f8800514f8800404880005148800034
:102c4000804a8800914a880060488000714880006e
:102c5000a04a8800b14a88008048800091488000de
:102c6000c04a8800d14a8800a0488000b14880004e
:102c7000e04a8800f14a8800c0488000d1488000be
:102c8000004b8800114b8800e0488000f14880002c
:102c9000204b8800314b880000498000114980009a
:102ca000404b8800514b880020498000314980000a
:102cb000604b8800714b880040498000514980007a
:102cc000804b8800914b88006049800071498000ea
:102cd000604f8800714f88008049800091498000d2
:102ce000804f8800914f8800a0498000b149800042
:102cf000a04f8800b14f8800c0498000d1498000b2
:102d0000c04f8800d14f8800e0498000f149800021
:102d1000a04b8800b14b8800004a8000114a800017
:102d2000e04f8800f14f8800204a8000314a80003f
:102d30000050880011508800404a8000514a8000ad
:102d4000c04b8800d14b8800204580003145800071
:102d5000a04e8800b14e880060458000714580001b
:102d6000c04e8800d14e8800c0408000d140800015
:102d7000204e8800314e8800404180005141800043
:102d8000a04d8800b14d88000042800011428000b3
:102d9000404e8800514e88006042800071428000a1
:102da000c04d8800d14d8800a0468000b14680000b
:102db000e04e8800f14e8800e0468000f146800039
:102dc000004f8800114f88000043800011438000ad
:102dd000604e8800714e88008043800091438000df
:102de000e04d8800f14d880040448000514480004f
:102df000804e8800914e8800a0448000b14480003d
:102e0000004e8800114e880010c0b30004eab700dd
:102e100010c0b30005eab70010c0b30006eab7005f
:102e200010c0b30007eab70010c0b30008eab7004b
:102e300010c0b30009eab70010c0b3000aeab70037
:102e400010c0b3000beab7000080fa0000000600d3
:102e50000000fa000080fa00000006000000fa00fe
:102e6000e40007000f01070035ff070022010700fb
:102e7000b20007006000b800604b8800714b88000a
:102e80006000b800204b8800314b88000000200013
:102e9000812c2400804a8800914a8800000020008c
:102ea000812c2400804b8800914b88000058220020
:102eb0006b030700e0042000201088000f000700cb
:102ec000b8010700d962a900409c20003021880089
:102ed000409c200030228800409c20003023880045
:102ee000409c200030248800409c20003025880031
:102ef000409c200030268800ffff37000000fa00c9
:102f000031e2a90031a2a9003182a9003162a900f1
:102f100081118000f0cf2f000080600080118800b8
:102f200030e2a80030c2a90030a2a9003082a90076
:102f30008111800090ff2f000080600080118800c8
:102f40003002a9003062a9000040240090058800ea
:102f500091118000f0f32f00008060009011880034
:102f60003222a900a0012000c011880031e2a8008f
:102f70003342a8000080fa00000006001200fa00a8
:102f8000000f98006000b800008fbe00640047008a
:102f90006011b8000288be00640040006011b800f3
:102fa0000288be00640040006011b8000288be00c4
:102fb000640040007600570010007800a200200056
:102fc000800078000e007800ccf8070080007800c0
:102fd0000e089000e8f807000e089000f1f80700ce
:102fe0008e0890000080400022002000019e2800f2
:102ff000d1f807007600570010009000a2002000d2
:10300000800078000e007800bcf80700800078008f
:103010000e089000d8f807000e089000e1f80700ad
:103020008e0890000080400022002000019e2800b1
:10303000c1f807007600570020009000a200200091
:10304000800078000e007800acf80700800078005f
:103050000e089000c8f807000e089000d1f807008d
:103060008e0890000080400022002000019e280071
:10307000b1f807007600570030009000a200200051
:10308000800078000e0078009cf80700800078002f
:103090000e089000b8f807000e089000c1f807006d
:1030a0008e0890000080400022002000019e280031
:1030b000a1f807007600570040009000a200200011
:1030c000800078000e0078008cf8070080007800ff
:1030d0000e089000a8f807000e089000b1f807004d
:1030e0008e0890000080400022002000019e2800f1
:1030f00091f807007600570050009000a2002000d1
:10310000800078000e0078007cf8070080007800ce
:103110000e08900098f807000e089000a1f807002c
:103120008e0890000080400032002000219e280080
:1031300081f807000080fa00000006000000fa0095
:1031400001e4a90050c7a80051a7a800813a800057
:10315000f08f2f0080806000001020000080700041
:10316000803a880051e7a80000000000813a800002
:103170000000240000806000e00f5000fbff3200e0
:103180002124a9004124a9006124a9008124a900c7
:10319000a124a900c124a90023e4a80043e4a800b5
:1031a00063e4a80083e4a800a3e4a800c3e4a800a3
:1031b00040772200202088000000eb00402188009a
:1031c0000000eb00402288000000eb004023880054
:1031d0000000eb00402488000000eb004025880040
:1031e0000000eb004026880001e4a8000080fa00ff
:1031f000000006000000fa00200f2000303a88008e
:10320000213a8000f0f32f0000806000203a88000f
:10321000213a800000fe2f00008060007000b300a3
:10322000203a88000000eb00403a880040a7a9003f
:103230001200200080072000a10920003374200024
:103240008049780081497800824978001200200086
:10325000600420007105200023742000804978005c
:10326000814978008249780000000000113a80000e
:10327000000027008080600000002100808f500047
:10328000faff3a0000000000113a8000000220001e
:1032900000806000e00f5000fbff32000080fa0069
:1032a000000006000000fa00c982a900c9a2a90016
:1032b000d962a900d942a900d802a900d822a90040
:1032c000d842a900d982a900d1a2a900d1c2a900df
:1032d000cdc2a800cde2a800dc02a800dc22a80034
:1032e000dc42a800dd82a800d5a2a800d5c2a800b3
:1032f0000080fa00000006000000fa0005e1a900c5
:103300000421a90004c1a9002108800000032000b5
:1033100000807000200888000000eb000008880092
:10332000001920001008880021058000f0ff280007
:10333000808060000000210000807000200588006f
:103340008460a9009460a80005e1a80011e1a9002b
:103350001021a90010c1a9008108800000032000ed
:1033600000807000800888000000eb0030088800b2
:10337000003220006008880031058000f0ff28003e
:10338000808060000000210000807000300588000f
:1033900084e0a90094e0a80011e1a8000080fa00f0
:1033a000000006003600f800809fbe00829fbe002d
:1033b000849fbe00869fbe000000fa0060aa200025
:1033c000c800070030558000cf80de00f2f507000e
:1033d000a04a8800b14a880040558000cf80de00b6
:1033e000edf50700404b8800514b88005055800098
:1033f000cf80de00e8f50700e04a8800f14a880047
:1034000060558000cf80de00e3f50700c04a8800e9
:10341000d14a880070558000cf80de00def50700bd
:10342000a04b8800b14b880080558000cf80de0023
:10343000d9f50700004b8800114b880062f907009e
:10344000e04f8000f14f8000b8f5070000007800e1
:10345000302188000050800011508000b3f5070033
:103460000000780030228800204f8000314f80001b
:10347000aef507000000780030238800a04f8000e0
:10348000b14f8000a9f507000000780030248800c3
:10349000c04f8000d14f8000a4f5070000007800e5
:1034a00030258800604f8000714f80009ff5070035
:1034b0000000780030268800dd62a8008460a90042
:1034c0000080fa004f03be004f02be004f01be0055
:1034d0004f00be003600f900004006003600f8003c
:1034e000809fbe00829fbe00849fbe00869fbe005c
:1034f000881f78000200fa00f087470070805700ac
:1035000061aa200007000900311878000001b1000d
:10351000e0a0200099fe0700f08757000040eb0074
:10352000004f78000c0037001e4078008080fb00c0
:10353000e0a0200000804000104078000000fb0068
:103540003cf407000000000034f40700e04f500096
:10355000fdff3a001e4fe8009e4078000184fb000a
:10356000e0a020008ff70700800f5400eeff390025
:10357000020820008000eb00e0a0200076f70700a2
:1035800084e0a9000080fa004f0478004f03be00d9
:103590004f02be004f01be004f00be003600f900d2
:1035a000004006000000fa0010c0b300e70007006a
:1035b0000040eb00210007000040eb003400070052
:1035c0000040eb00020007000080fa000000060047
:1035d0000200fa00004f7800b1c6b30080c6b30005
:1035e000fd010700b6eab7001e407800e04f50002a
:1035f0000600320061ab20009140780000c4b300a7
:1036000000c07000b6eab7000500370061ab2000cb
:1036100091407800f0cbb30000c06000b6eab7007c
:10362000b6cabf0000417800b1c6b30080c6b3007f
:10363000ac0107000080fa00000006000200fa005a
:10364000004f7800b1c1b30080c6b300e2010700ab
:10365000b6eab700b6cabf008040780000ceb3001b
:1036600080c060001e4178000280fb004300dd0046
:103670000040780000c0700000417800b1c1b30084
:1036800080c6b300970107000080fa000000060022
:103690000200fa00004f7800c1c1b30080c6b30039
:1036a000cd010700b6eab700b6cabf008040780077
:1036b00000ceb30080c060001e4178000280fb0095
:1036c0004300dd000040780000c070000041780039
:1036d000c1c1b30080c6b300820107000080fa00b8
:1036e000000006000200fa00000f7800b1c3b3002a
:1036f00080c6b300b8010700b6eab700c1c3b30083
:1037000080c6b300b4010700b7eab700d1c3b30065
:1037100080c6b300b0010700b8eab700e1c3b30048
:1037200080c6b300ac010700b9eab700f1c3b3002b
:1037300080c6b300a8010700baeab70001c4b3000d
:1037400080c6b300a4010700bbeab70031c4b300d0
:1037500080c6b300a0010700bceab70041c4b300b3
:1037600080c6b3009c010700bdeab70051c4b30096
:1037700080c6b30098010700beeab70061c4b30079
:1037800080c6b30094010700bfeab70071c4b3005c
:1037900080c6b30090010700c0eab70081c4b3003f
:1037a00080c6b3008c010700c1eab700b6cabf00eb
:1037b0000080fb00c800dd00b7cabf000080fb002e
:1037c000808070001e00780001087800b8cabf0031
:1037d0000080fb00c800dd00b9cabf000080fb000c
:1037e000808070001e00780011009800bacabf00e7
:1037f0000080fb00c800dd00bbcabf000080fb00ea
:10380000808070001e00780021009800bccabf00b4
:103810000080fb00c800dd00bdcabf000080fb00c7
:10382000808070001e00780031009800becabf0082
:103830000080fb00c800dd00bfcabf000080fb00a5
:10384000808070001e00780041009800c0cabf0050
:103850000080fb00c800dd00c1cabf000080fb0083
:10386000808070001e007800510098009e00780053
:1038700010c0b300e04898000080fa000000060085
:103880000200fa00000f780011c4b30080c6b30034
:1038900051010700b6eab70021c4b30080c6b300e7
:1038a0004d010700b7eab700b6cabf000080fb00b1
:1038b000c800dd00b7cabf000080fb008080700038
:1038c0001e007800610098000080fa0000000600e9
:1038d0000200fa00004f7800b1c6b30080c6b30002
:1038e0003d010700b6eab7001e407800e04f5000e7
:1038f00004003a00b6cabf000034a000b6eab70020
:103900000500370061ab20009140780070cfb30014
:1039100000c06000b6eab700b6cabf000041780038
:10392000b1c6b30080c6b300ee0007000080fa0005
:10393000000006000000fa0051c7b30080c6b300c3
:10394000250107000080fa00000006000200fa00ce
:10395000004f7800b1c6b30080c6b3001e01070057
:10396000b6eab700b6cabf008040780080cfb30087
:1039700080c060001e40780000c0700000417800e8
:10398000b1c6b30080c6b300d60007000080fa00bd
:04399000000006002d
:020000040000fa
:10399400a60a000010000000000000000e0a00004b
:1039a4008000000002000000000000000000000091
:1039b4000000000000000000000000000000000003
:1039c40000000000000000000000000000000000f3
:1039d40000000000000000000000000000000000e3
:1039e40000000000000000000000000000000000d3
:1039f40000000000000000000000000000000000c3
:103a040000000000000000000000000000000000b2
:103a140000000000000000000000000000000000a2
:103a24000000000000000000000000000000000092
:103a34000000000000000000000000000000000082
:103a44000000000000000000000000000000000072
:103a5400000000008e0a00001800000000000000b2
:103a64004c090000c2000000000000000008000033
:103a74004c010000020000000000000000000000f3
:103a84000000000000000000000000000000000032
:103a9400803f0000000000000000000000cdcc00ca
:103aa400cc3df30066df3f006f1203003a000000d4
:103ab4000000db000f494000db0f4900c00000009c
:103ac400803f6f0012833a000000000000000000f5
:103ad4000000f30066df3f006f1203003a000000ad
:103ae4000000db000f494000db0f4900c00000006c
:103af400803f0000000000000000000000cdcc006a
:103b0400cc3df30066df3f006f1203003a00000073
:103b14000000db000f494000db0f4900c00000003b
:103b2400803f6f0012833a00000000000000000094
:103b34000000f30066df3f006f1203003a0000004c
:103b44000000db000f494000db0f4900c06f12008a
:103b5400033a0000000000006f1203003a00000066
:103b640000006f0012833a00000080003f00000054
:103b740000bf00000000bf000000000000d7b30039
:103b84005d3fd700b35dbf0000008000bf6f12002f
:103b9400033a0000000000006f1203003a00000026
:103ba40000006f0012833a00000080003f00000014
:103bb40000bf00000000bf000000000000d7b300f9
:103bc4005d3fd700b35dbf000000000000000000af
:103bd40000000000000000000000000000000000e1
:103be40000000000000000000000000000000000d1
:103bf40000000000000000000000000000000000c1
:103c040000000000000000000000000000000000b0
:103c140000000000000000000000000000000000a0
:103c24000000000000000000000000000000000090
:103c340000000000c40a00000200000000000000b0
:103c4400b60a00000e00000000000000c60a0000d2
:0c3c540002000000000000000000000062
:020000040000fa
:103c60000400fa00100798000000eb00000f780035
:103c7000c4cabf00e14f50001700320007e2a9009c
:103c80001e00900000004000010020000001be0066
:103c900000082f00a12f200091f3070000007800fa
:103ca0000080e90020108800201080000080e800db
:103cb00000004000010020000001be0000082f00ad
:103cc000a12f200086f30700000f780007e2a8006c
:103cd00010c0b300c4eab7001e0078000080fa00ec
:103ce000000006000400fa00004f78001147980019
:103cf0002247980045f207000000000030108000c5
:103d000061006000e00f5000fcff3a008620a9002f
:103d10001e4078000040400023f207000000000031
:103d20004010800061006000e00f5000fcff3a008e
:103d3000000000003004800062006000e00f5000ce
:103d4000fcff32008620a9001e40900016f20700fa
:103d5000000000004010800061006000e00f500093
:103d6000fcff3a00000000003004800062006000a8
:103d7000e00f5000fcff32008620a9002e4090008a
:103d800009f20700000000004010800061006000a0
:103d9000e00f5000fcff3a000000000030048000fb
:103da00062006000e00f5000fcff32008620a90096
:103db00018f207000000000030108000640060006e
:103dc000e00f5000fcff3a00d7f1070010c0b3002d
:103dd0000080fa00000006000400fa002047980066
:103de000314798000040eb00004f780007f20700d1
:103df000000000003010800061006000e00f500003
:103e0000fcff3a002e40900000404000e6f1070021
:103e1000000000004010800061006000e00f5000d2
:103e2000fcff3a00000000003004800062006000e7
:103e3000e00f5000fcff32008620a9003e409000b9
:103e4000d9f1070000000000401080006100600010
:103e5000e00f5000fcff3a0000000000300480003a
:103e600062006000e00f5000fcff32008620a900d5
:103e7000e4f10700000000003010800062006000e4
:103e8000e00f5000fcff3a002e4090000040400040
:103e90000040e800c4f1070000000000401080006e
:103ea00061006000e00f5000fcff3a0000000000dd
:103eb0003004800062006000e00f5000fcff320020
:103ec0008620a900b1f10700004f7800caf1070071
:103ed000000000003010800070006000e00f500013
:103ee000fcff3a00cbf1070000000000301080001a
:103ef00064006000e00f5000fcff3a008af1070008
:103f00001e4078000080fa00000006000200fa005f
:103f1000000f780095000700b0548800c154880055
:103f2000ab00070010558800215588004f0007009e
:103f3000705488008154880065000700d0548800c0
:103f4000e15488006900070090548800a15488005b
:103f50007f000700f0548800015588000080fa00b7
:103f6000000006000400fa00008fbe0070548000bc
:103f7000815480000001be001e00be00e7f2070071
:103f8000e00f50000700320090548000a1548000e0
:103f90000001be001e00be00e0f20700e00f50006e
:103fa00002003a0010c0b300010037000040eb00ef
:103fb0000080fa00000006000400fa00008fbe0036
:103fc000d0548000e15480000001be001e00be00fd
:103fd000d2f20700e00f500007003200f0548000da
:103fe000015580000001be001e00be00cbf207009c
:103ff000e00f500002003a0010c0b300010037008b
:104000000040eb000080fa00000006000400fa0007
:10401000008fbe001e01be001e00be000cf3070094
:10402000e00f50000200320010c0b3000100370062
:104030000040eb000080fa00000006000400fa00d7
:10404000008fbe001e01be001e00be0000f3070070
:10405000e00f50000200320010c0b3000100370032
:104060000040eb000080fa00000006000e00fa009d
:1040700000022000200798006000b800008fbe00fa
:10408000ae00900000022000808f500003003a0034
:104090000f000700008fbe000a003700000020005c
:1040a00001ff270050079800610798006000b800e2
:1040b00030079800410798003e009000ce00900025
:1040c000008fbe001e00be000080fa000000060047
:1040d0000400fa000000200001f82700008fbe0055
:1040e0001e00be000080fa00000006000e00fa006c
:1040f00000022000200798006000b800008fbe007a
:10410000ae00900000022000808f500003003a00b3
:104110000f000700008fbe000a00370000002000db
:1041200001ff2f0050079800610798006000b80059
:1041300030079800410798003e009000ce009000a4
:10414000008fbe001e00be000080fa0000000600c6
:104150000400fa000000200001f82f00008fbe00cc
:104160001e00be000080fa00000006000e00fa00eb
:1041700000022000200798006000b800008fbe00f9
:10418000ae00900000022000808f500003003a0033
:104190000f000700008fbe000a003700000020005b
:1041a00081ff2f0050079800610798006000b80059
:1041b00030079800410798003e009000ce00900024
:1041c000008fbe001e00be000080fa000000060046
:1041d0000400fa006000b800008fbe00000020005c
:1041e00001fc2f00008fbe001e00be000080fa0000
:0441f00000000600c5
:020000040000fa
:0200000401f009
:04000c00f8ff0000f9
:020000040000fa
:0200000401f009
:040010007dff000070
:020000040000fa
:0200000401f009
:040014007fff00006a
:020000040000fa
:0200000401f009
:04001c00dfff000002
:00000001FF
