:020000040000fa
:080000000002040000000000f2
:020000040000fa
:1000080090020000900200009002000090020000a0
:100018009002000090020000900200009002000090
:1000280090020000900200009002000046190000b3
:10003800900200009002000090020000a419000045
:100048009002000090020000900200009002000060
:100058009002000090020000900200009002000050
:100068009002000090020000900200009002000040
:100078009002000090020000900200009002000030
:100088009002000090020000900200009002000020
:100098009002000090020000900200009002000010
:1000a8009002000090020000900200009002000000
:1000b80090020000900200009002000090020000f0
:1000c80090020000900200009002000090020000e0
:1000d80090020000900200009002000090020000d0
:1000e80090020000900200009002000090020000c0
:1000f80090020000900200009002000090020000b0
:10010800900200009002000090020000900200009f
:10011800900200009002000090020000900200008f
:10012800900200009002000090020000900200007f
:10013800900200009002000090020000900200006f
:10014800900200009002000090020000900200005f
:10015800900200009002000090020000900200004f
:10016800900200009002000090020000900200003f
:10017800900200009002000090020000900200002f
:10018800900200009002000090020000900200001f
:10019800900200009002000090020000900200000f
:1001a80090020000900200009002000090020000ff
:1001b80090020000900200009002000090020000ef
:1001c80090020000900200009002000090020000df
:1001d80090020000900200009002000090020000cf
:1001e80090020000900200009002000090020000bf
:0801f8009002000090020000db
:020000040000fa
:10020800900200009002000090020000900200009e
:10021800900200009002000090020000900200008e
:1002280090020000900200009002000046190000b1
:10023800900200009002000090020000a419000043
:10024800900200009002000090020000900200005e
:10025800900200009002000090020000900200004e
:10026800900200009002000090020000900200003e
:10027800900200009002000090020000900200002e
:10028800900200009002000090020000900200001e
:10029800900200009002000090020000900200000e
:1002a80090020000900200009002000090020000fe
:1002b80090020000900200009002000090020000ee
:1002c80090020000900200009002000090020000de
:1002d80090020000900200009002000090020000ce
:1002e80090020000900200009002000090020000be
:1002f80090020000900200009002000090020000ae
:10030800900200009002000090020000900200009d
:10031800900200009002000090020000900200008d
:10032800900200009002000090020000900200007d
:10033800900200009002000090020000900200006d
:10034800900200009002000090020000900200005d
:10035800900200009002000090020000900200004d
:10036800900200009002000090020000900200003d
:10037800900200009002000090020000900200002d
:10038800900200009002000090020000900200001d
:10039800900200009002000090020000900200000d
:1003a80090020000900200009002000090020000fd
:1003b80090020000900200009002000090020000ed
:1003c80090020000900200009002000090020000dd
:1003d80090020000900200009002000090020000cd
:1003e80090020000900200009002000090020000bd
:0803f8009002000090020000d9
:020000040000fa
:100400008fac20000ebf22000e018800000000000b
:100410000c00070000c021000100200011000700af
:10042000000020000000e000020032000000020096
:1004300000000000e8160200000000000040da00a2
:100440000000fe004440a900800020000000e00001
:100450000300320000002000a00188004440a800f2
:100460000000060091018800800078000000eb0089
:1004700015003700e280400032a0b4009101ba00bc
:10048000e280400032a0b4009102ba00e280400055
:1004900032a0b4000002eb00472bde00f507b200eb
:1004a000602ce10004003a000059eb008301e900f0
:1004b000fdff3e00040037006128e100010032002a
:1004c0000082eb00040007001101ba000200e00006
:1004d000e8ff3a00000006003159ba008301e90044
:1004e0000c0032002159ba008301e90008003200f3
:1004f0000400e00003003a00e280400032a0b400b3
:10050000f5ff370011d9ba008301e900faff3a007c
:100510008100e800e180400032a0b4000000060045
:100520000040da000000fe00000024000602ab00dc
:10053000feff3a000642ab00fcff3a000662ab0049
:10054000faff3a000622ab00f8ff3a000682ab0041
:10055000f6ff3a004110800080806000f3ff3a000f
:10056000000006000662a8000662ab00feff3a002b
:1005700008c2a90000108000000006000080fb00f7
:1005800010108800411080000108b20000c0eb008c
:100590000a003a00000024004110800080806000c2
:1005a000fdff3a00e0ff0700411080000000280036
:1005b0000080600001003200e0cfb30000000600c0
:1005c00006a2a8000682a800000006000622a800d5
:1005d000000006000602a800000006000642a8006f
:1005e00000000600911180000110b20010c0b3009d
:1005f000010032000040eb00000006008111800085
:10060000e6806000e68f500001003200f00fb2007b
:10061000a01188000000060003f0a200889fbe0021
:100620008a9fbe008c1f7800720107007901330099
:100630006450e1004f0032006420e10052003200bb
:1006400003826c0007003b000905d0000306d000c0
:10065000820f54000c065d000200390002003200d7
:1006600089017800030678008582550004003d006a
:100670000003fd008103fd008502ea008b85420036
:10068000840f720002003b0060001000e080180040
:100690006011b8000005eb007a28e1000a0039007b
:1006a00006007800c75ddd00f707b200878075009f
:1006b0002d003700828171000a0178006105600019
:1006c0008180d1000080d3008502e900f9ff3b0062
:1006d000060440008784480002003b0060041400c8
:1006e000e0841c000988a300070032008a817100a1
:1006f00082817100610164008904d1000884d30003
:100700008b05e800170037000978a30013003a00b2
:100710000b00e000130034008b05e90008044400de
:1007200089844c000a4474000978a3000d003a0043
:100730000b00e000070034008b05e90008044400ca
:1007400089844c0001003a000b0020000978a300c6
:10075000f7ff32000001eb000200370082817100d8
:100760000a017800e80007000cf0a70001f0a000e3
:10077000310137006420e10002003a00838f6c00f1
:10078000310133000801be000200be002a0137001b
:10079000889fbe008a9fbe008c1f7800150107004d
:1007a0001002200002003b0030568800190137007b
:1007b0008a0062006408e10002003a0030568800b6
:1007c000210137006108e100fcff32000800be0093
:1007d000030478007200070001f0a100090007007f
:1007e00008f0a600040037000001be0091042400b8
:1007f000b0fd200088ff070009f0a70001f0a2006b
:100800000d013700889fbe008a9fbe008c9fbe00ee
:100810000004be00e20007000800be008906780060
:100820006420e10008003900040032000160a000eb
:1008300012022000325688005300370091fc23003a
:10084000b0fd20004e0037000006eb0009f0a100cb
:1008500003f82300020020000800be00a1000700ea
:100860000600340001f82300000020000801be004b
:100870004b0007000004be002c0020000800be0052
:1008800093e82300320a2300960007001200340088
:100890000801be00d1fd2300703d2b005fff070063
:1008a0000005be00b3f32300f27a26000800be0064
:1008b000e800070003f823000200200056ff0700ad
:1008c0000801be0055ff07000a01be003400070002
:1008d0000004be000c06e8000800be0001f0a10004
:1008e00002002000039823007e0007000800be00dd
:1008f000160035000801be00d60007000005be0046
:1009000032cd2c0043fb230044ff0700809fbe0034
:100910001269280003d52b000a00be00cd00070095
:10092000620f210013ef2b003cff07000a01be00fd
:10093000c80007004f01be00190007000801be00f3
:10094000c40007000801be0034ff07000c00e000ef
:100950000b0032000c10a70001f0a200b2fd200035
:1009600093fc23006260e1000400320022a9200011
:1009700063f023000c10a70063f8230027ff070093
:100980000df0a70001f0a2004f06be004f05be000b
:100990004f04be00000006000081eb00e1003700bc
:1009a000889fbe008a9fbe008c1f780091000700c0
:1009b0009800330003866c006450e1002e00320082
:1009c0006420e100330032006150e1002f0032006a
:1009d0006120e1003100320085855500eb07b00051
:1009e0000900200008042000050037000804440026
:1009f00089844c000a0031000603430087834b00c2
:100a00000001530081815b00f8ff33000203be0048
:100a10000800a0000804440089844c00f6ff390057
:100a2000c639dd008301730001003200130020008d
:100a30008904d1000884d3000998a300050032007e
:100a40000800a7000300a0008904d1000884d30097
:100a50008b05e8008904d1000884d3000001eb0075
:100a60000281d2002800070001f0a1000cf0a700cd
:100a700001f0a000700037006420e1007200320035
:100a80000801be000200be00f7ff37006120e10050
:100a90006d0032006000b800f3ff37000000200056
:100aa00001f82700f0ff3700839f68000100e00095
:100ab00002003d0060001000e08018000300e0002c
:100ac00002003d0060011100e081190000010700f3
:100ad0004f00e00002003b0060001000e0801800c2
:100ae000000006001400200009013700f4ff2f0069
:100af000070137004f89de0082017800400137008e
:100b000004002000020137008100200061805500b0
:100b10000b003d000b00200061fe2f000100e100f2
:100b20001d00340082817100610164008904d100dc
:100b30000884d3000000e800faff3a0071002000aa
:100b400061006400030070000200600009003200d0
:100b500061044400e0844c000988a50005003200cf
:100b60008b05e8006808e10002003a008904d10022
:100b70000884d300f20f20000258e10005003d0078
:100b8000c75ddd00f907b2008980750008007800b4
:100b9000000006000bf827008b007800000005001d
:100ba000c70ade00f107b200f50fb20008003200fc
:100bb000e1cf4200020032000170a00024000500d5
:100bc000810f700001003200040805004400050098
:100bd000810f700002003a00140005008502e90050
:100be0000000400081c04800fcff3b000170a000f5
:100bf000240005000004be00e9ff07000003be005a
:100c00000405be000200be00e5ff0700844f75002a
:100c1000000006000200be006450e100050036003e
:100c20006420e100020036000968a30001003a00d8
:100c30000800be000160a0004f0678004f05be000e
:100c40004f04be0000000600f0ff2f00f1ff270058
:100c5000f9ff3700889fbe008a9fbe008c1f780076
:100c6000e4ff0700ebff330003866c006450e100f3
:100c7000240032006420e100270032006150e100ce
:100c8000220032006120e100210032008b85420009
:100c9000eb07b1000134b800003ab8000804420084
:100ca00089844a00013ab8000030b80088804000ca
:100cb00009014a0004003300000040008180480020
:100cc000020149008b05e900c909dd0083017000bc
:100cd0000100320013002000c814de004814dd00bb
:100ce0004709de001200b200c808de000884700068
:100cf00085ff070001f0a1000cf0a70001f0a000a3
:100d0000cdff37006120e100cfff32000801be00b7
:100d10000200be00f7ff37006150e100fcff3a001f
:100d2000c9ff3700889fbe008a9fbe008c9fbe000f
:100d3000820578000004be0099ff07000800be008d
:100d40006420e1000700390002003a00f1ff2700ab
:100d5000f0ff2f000160a000120220003256880030
:100d6000550037006120e10003003a000b00a700a6
:100d700001f823005000370001f0a100020021001b
:100d80009364240057ff07000800be0004003500ec
:100d9000b2fd2000930c2400d80007000004be0020
:100da0000005eb000b00a6004f0dde0001f0a100d6
:100db0000004be0032982f0023ea2300a5ff07009d
:100dc0000001eb0003f023000b00a70003f8230051
:100dd00012fe0700690007000000a7000a00a20039
:100de00044ff07000b00e000030032000200200077
:100df00003f0230008fe070001f0a2000006be0079
:100e0000020020009304240092ff07000801be00a6
:100e100002fe0700809fbe000c00be0022a22a0036
:100e2000d3a723008bff07004f01be00fbfd070087
:100e30000004be0001f0a10002002000039823007e
:100e400028ff07000800be00190035000001be00a1
:100e500080ff07000006be00b2c52900e362230040
:100e60007cff070022222b00f3942b00ebfd0700f0
:100e70000c01be0077ff0700e273280083c0230047
:100e8000e6fd07000c01be0072ff070042aa2a001f
:100e9000a3e22b00e1fd07000c01be006dff07007f
:100ea0000801be006bff07000801be00dbfd070064
:100eb0000a00a70001f0a2004f06be004f05be00c9
:100ec0004f04be00000006000001eb0095ff370054
:100ed0006022b800060220000000d0008180d2000d
:100ee0000482d2008582d2000000a00002025200db
:100ef00083825a00030031000202420083824a00ca
:100f00000000a1000603e900f3ff3a00000006001c
:100f1000889fbe008a9fbe00841f780035ff0700af
:100f20004f00780011003300f0ff2f00838f6c001a
:100f300006003b00040565000a00a7000800370012
:100f400009f0a6001000200008003700820f5400ae
:100f5000838f5c00030039001000200001003e0078
:100f60000000200009f0a7000000ea004f05be00c5
:100f70004f04be000000e000000006000001be00bb
:100f800007ff07000470a70003f0a1006509b10086
:100f9000160032000d0035006828e100060035001b
:100fa000f0ff2f00f1ff27000300e00013003b00db
:100fb000010028000000050000004000818048007a
:100fc0008502e900fcff3a0008003700f88f420074
:100fd00002003c008000eb00000005008100d10011
:100fe0000080d3008502e800fcff3a000300e00027
:100ff00002003b0060001000e080180000000600c6
:10100000881f7800030478000300e00007003d001b
:1010100060001000e080180060011900e0811900f4
:1010200002003b0001f02d00030037000400070020
:1010300008f0a70001f0a0004f04780000000600af
:10104000889fbe008a9fbe0000827000040271006b
:1010500004827100260032000004be000200be00bf
:101060006011b8006b092000950220000182cf00ba
:101070000a0039000541b1000082cf0007003900a5
:101080000541b1000982cf00040039000541b100db
:101090000882cf00010039000541b100054252002d
:1010a000120032000a003b0082817100610164007d
:1010b0008100d1000080d3008984d3000884d3004c
:1010c0008b05e8000442e800f7ff3a00070037000c
:1010d0000804440089844c000000480081804800d6
:1010e0008b05e9000442e900f9ff3a0086fe07009b
:1010f0004f05be004f04be000000060004002000a3
:1011000000003700889fbe008a9fbe008c1f7800b9
:101110004f26dd00b7fe0700befe33006120e10070
:10112000430032006250e10041003e003e003900c1
:101130006420e1003c003200058255000f003b00b6
:101140000402e80038003a00800f5300818f5b00f2
:10115000350034000800be0003f0a10001f0a60035
:1011600003f0a0000cf0a7002cfd0700b2fe370032
:101170000603430087834b000c46460000055300de
:1011800081855b00020033000a03be000c00a00052
:101190000402e900f6ff3b008505780006024300e3
:1011a00087824b0004003a006000b80009f0a700f5
:1011b00001f0a000a0fe37000002520081825a0018
:1011c0000704e000040033000603430087834b005c
:1011d0008b05e900faff3700090578000604be0018
:1011e0000203be006011b80047fe0700e00f520086
:1011f000e08f5a000700350002003c000c08a300f5
:10120000040032000601be0003f0a0000cf0a700ad
:1012100002fd07000a85680001f0a1000af0a7009e
:1012200001f0a00084fe37000800be0082fe3700f7
:10123000100220000cf0a6003056880082fe370015
:10124000010278000100370003007800809fbe0093
:10125000110009000282d800000278004f00be0091
:101260008001e800e00f5200f7ff3a00844978005f
:1012700000027800110009008280d8000002fd0001
:101280008101780084007800e9cf5100010034002a
:10129000e7c1410005c3b30005d04100e00f520093
:1012a000f3ff3a0000000600881f78000004780071
:1012b000e08f500005003d0088017800d0c2b300e7
:1012c000805978008100ea00010037008801780029
:1012d00003007800daff0700080078004f04780068
:1012e000000006008001780002003700b159780044
:1012f000040178000202e900e00f5100fbff3a0010
:101300000000060080017800020037008159780053
:10131000040178000202e900e00f5100fbff3a00ef
:101320000000060000017800010037000201e8001b
:101330008041eb0092cf1100fcff3a00b1417800f0
:1013400003597800e0cf5100fcff3a00000006008e
:10135000800078000041eb00b14f1100fdff3a0022
:0c1360000080ea00008040000000060051
:020000040000fa
:10136c002c0000000d0a0000000000000c0a000018
:020000040000fa
:10137c001200fa00881f78002007980031079800a7
:10138c004207980053079800640798007507980067
:10139c00060f980018c0b3006011b8002e00900022
:1013ac00be009000cefd0700e00f500001003d0094
:1013bc000044eb00e04f54006d00320018c0b30045
:1013cc006011b8004e009000de009000c4fd0700d4
:1013dc00e00f500001003d000044eb00e04f5400d2
:1013ec001d00320002002000832c24004e009000cf
:1013fc00de00900014fe0700008fbe000e09900066
:10140c006000b8000089be000e0890001e01be00ee
:10141c00220098003300980002002000832c240046
:10142c002e009000be00900007fe07001e01be00bb
:10143c0077fc07000e0990004001980051019800bc
:10144c000e099000000020000104240060019800a7
:10145c0071019800b400370018c0b3006011b800d7
:10146c006e009000fe0090009dfd0700e00f500004
:10147c0001003d000044eb00e04f54001d00320021
:10148c0002002000832c24002e009000be0090004f
:10149c00edfd0700008fbe0002002000832c24000d
:1014ac006e009000fe009000e7fd07001e01be00dc
:1014bc0057fc07000e0990000089be000e09900031
:1014cc006000b80020019800310198000e089000cf
:1014dc001e01be0042009800530098000e099000b7
:1014ec0000002000010a240060019800710198009e
:1014fc008d0037004e009000de00900001f0a2003d
:10150c0002002000832c2400cffd0700008fbe00ba
:10151c000e0890003e1878002e1078000e099000ee
:10152c006000b80020019800310198006e00900016
:10153c00fe00900001f0a20002002000832c240089
:10154c00c1fd07001e01be0031fc07000e09900012
:10155c0040019800510198000e09900000002000f5
:10156c0001f8230060019800710198006e003700ab
:10157c0018c0b3006011b8004e009000de0090005f
:10158c0057fd0700e00f500001003d000044eb0048
:10159c00e04f54004600320018c0b3006011b80090
:1015ac006e009000fe0090004dfd0700e00f500013
:1015bc0001003d000044eb00e04f54001d003200e0
:1015cc0002002000832c24006e009000fe0090008e
:1015dc009dfd0700008fbe000e0890003e1878009d
:1015ec002e10780002002000832c24004e00900066
:1015fc00de00900094fd07001e01be0004fc0700f5
:10160c000e09900020019800310198000e099000fd
:10161c006000b80040019800510198000e0990003c
:10162c0000002000010c240060019800710198005a
:10163c003d0037006e009000fe00900001f0a2000b
:10164c0002002000832c24007ffd0700008fbe00c9
:10165c000e0990006000b8000089be002e009000ba
:10166c00be00900001f0a20002002000832c240098
:10167c0075fd07001e01be00e5fb07000e0990007a
:10168c0020019800310198000e0890001e01be0048
:10169c0042009800530098000e09900000002000b2
:1016ac000100240060019800710198001e003700b1
:1016bc002e009000be00900001f0a200020020005d
:1016cc00832c240060fd0700008fbe004e009000ac
:1016dc00de00900001f0a20002002000832c240008
:1016ec0059fd07001e01be00c9fb07000e09900042
:1016fc000089be000e0890001e01be00220098005a
:10170c00330098000e0990006000b800400198006a
:10171c00510198000e0990000000200001082400df
:10172c0060019800710198004f0478000080fa0065
:10173c00000006000600fa00008fbe002207980089
:10174c0002002000333024001e00be0091fc070074
:10175c0052a32f00e3c823003bfd0700020020002a
:10176c00030a240038fd07002e0190000089be00fa
:10177c000080fa00000006000600fa00008fbe0090
:10178c002207980032332300332024001e00be00b1
:10179c0080fc07002e0190000089be000080fa003a
:1017ac00000006000c00fa00889fbe008a1f78001b
:1017bc0020079800310798004207980053079800bb
:1017cc002e009000be009000b4090700e04f5000be
:1017dc0005003a004e009000de009000af090700b3
:1017ec00e04f50000400320010558000215580005d
:1017fc00008fbe00570037002e009000be009000f6
:10180c0085090700e04f5000270032004e00900081
:10181c00de00900080090700e04f500022003200eb
:10182c0018c0b3006011b8004e009000de009000ac
:10183c00abfc0700e00f500001003c000044eb0043
:10184c00e04f5400030032000800200009f8230088
:10185c00020037000800200009f82b001ac0b30062
:10186c006011b8002e009000be0090009cfc070098
:10187c00e00f500001003c000045eb00e04f55002c
:10188c00030032000000200001f8230002003700a2
:10189c000000200001f82b000801be00b9fb070076
:1018ac00008fbe002b0037006011b8004e00900076
:1018bc00de00900088fc0700e00f50001f003a008b
:1018cc0018c0b3006011b8002e009000be0090004c
:1018dc0083fc0700e00f500001003c000044eb00cb
:1018ec00e04f540004003200b0fd200091fc2300b6
:1018fc00008fbe001700370018c0b3006011b8008d
:10190c002e009000be00900073fc0700e00f50000a
:10191c00010035000044eb00e04f5400040032009d
:10192c00b0fd200091fc2b00008fbe000900370099
:10193c006000b800008fbe00060037004e0190001a
:10194c00de0190002e009000be0090008dfb070081
:10195c00008fbe001e00be004f0578004f04be0075
:10196c000080fa00000006008a00fa00889fbe0082
:10197c00c04b8000d14b8000101f9800211f980095
:10198c00604b8000714b8000000f9800110f980085
:10199c00404b8000514b8000301f9800411f980035
:1019ac00c29820003e189000ce18900072ff0700dd
:1019bc00e04a8000f14a8000501f9800611f980097
:1019cc00829820005e189000ee1890006aff0700c5
:1019dc00404c8000514c8000644c8000754c800061
:1019ec000001be000400be006eff0700701f9800cf
:1019fc0001279800c04a8000d14a80001027980027
:101a0c0021279800029920001e209000ae20900003
:101a1c0048ff070004cabf00e04f50000500320029
:101a2c00a04e8000b14e8000200f9800310f98001e
:101a3c000f0037000445800015458000804c800065
:101a4c00914c80000001be000400be007efc07002b
:101a5c000002be00a04e8000b14e80000001be000e
:101a6c000400be00eafa0700200f9800310f98001e
:101a7c0005cabf00e04f500005003200c04e800088
:101a8c00d14e8000400f9800510f98000f00370086
:101a9c004445800055458000804c8000914c80006e
:101aac000001be000400be0067fc07000002be007f
:101abc00c04e8000d14e80000001be000400be006c
:101acc00d3fa0700400f9800510f98007e19900030
:101adc008e2190002e089000be089000cbfa0700d3
:101aec004e099000de099000c9fa07000e0990001b
:101afc009e099000c6fa07003027980041279800ed
:101b0c0080408000914080003e219000ce219000ca
:101b1c004dfc07005027980061279800e04080009a
:101b2c00f14080006011b80047fc07007027980056
:101b3c00012f980080458000914580003e21900047
:101b4c00ce21900040fc07000002be00a0408000a7
:101b5c00b14080000001be000400be003afc07004a
:101b6c000002be00204e8000314e80000001be00fd
:101b7c000400be00a6fa07000004be007e219000ff
:101b8c008e2990005e209000ee209000a0fa0700b5
:101b9c000001be000800be009dfa07000002be0056
:101bac0005f0a100004180001141800018c0b30075
:101bbc000001be000400be00c7fb0700e00f500090
:101bcc00010035000044eb00e04f540004003200eb
:101bdc003e209000ce209000008fbe000300370006
:101bec002040800031408000008fbe0006cabf003c
:101bfc00e04f500005003200a04d8000b14d800038
:101c0c00600f9800710f98000c0037002041800085
:101c1c00314180001e01be000bfc07000002be001b
:101c2c00a04d8000b14d80000001be000400be003c
:101c3c0077fa0700600f9800710f9800a0408000a1
:101c4c00b14080006e099000fe099000fefb070079
:101c5c005e219000ee2190006dfa07007e2190002d
:101c6c008e2990006afa0700102f9800212f9800f7
:101c7c00604180007141800018c0b3001e299000a3
:101c8c00ae29900094fb0700e00f500001003400d7
:101c9c000044eb00e04f5400030032006041800030
:101cac00714180001000370080418000914180001c
:101cbc0018c0b3001e299000ae29900088fb0700c5
:101ccc00e00f500001003d000044eb00e04f5400d9
:101cdc0003003200804180009141800002003700f7
:101cec001e289000ae2890007e1990008e21900046
:101cfc0047fa070070279800012f9800a041800038
:101d0c00b14180007e2190008e299000cefb07000f
:101d1c00302f9800412f98006000b8005027980091
:101d2c0061279800c0418000d14180007e21900045
:101d3c008e299000c4fb07000002be00e041800029
:101d4c00f14180000001be000400be00befb070094
:101d5c000002be00404e8000514e80000001be00cb
:101d6c000400be002afa07000004be005e219000a9
:101d7c00ee2190003e289000ce28900024fa070017
:101d8c000001be000800be0021fa07000002be00e0
:101d9c0005f0a100204280003142800018c0b30041
:101dac000001be000400be004bfb0700e00f50001a
:101dbc00010035000044eb00e04f540005003200f8
:101dcc007e2090008e289000200798003107980004
:101ddc00040037000040800011408000200798006c
:101dec003107980007cabf00e04f500005003200d1
:101dfc00c04d8000d14d800000179800111798003d
:101e0c000d00370040428000514280002e019000ae
:101e1c00be0190008cfb07000002be00c04d80008c
:101e2c00d14d80000001be000400be00f8f907008f
:101e3c000017980011179800e0418000f1418000d4
:101e4c000e1190009e1190007ffb07003e29900020
:101e5c00ce299000eef907005e219000ee21900053
:101e6c00ebf90700502f9800612f980080428000fa
:101e7c009142800018c0b3005e299000ee299000ba
:101e8c0015fb0700e00f5000010034000044eb008c
:101e9c00e04f5400030032008042800091428000e9
:101eac0010003700a0428000b142800018c0b3007f
:101ebc005e299000ee29900009fb0700e00f50000e
:101ecc0001003d000044eb00e04f540003003200e1
:101edc00a0428000b1428000020037005e289000d2
:101eec00ee2890000e0990009e099000c8f907009a
:101efc0070279800012f98007e2090008e2890006b
:101f0c00eefb0700302f9800412f98007e209000a8
:101f1c008e2890009dfa070070279800012f9800da
:101f2c007e2190008e2990001e189000ae18900013
:101f3c0045fb07000004be00804a8000914a8000e7
:101f4c003e299000ce2990003ffb07000001be0007
:101f5c000800be00adf90700701f9800012798001b
:101f6c00804a8000914a80007e2190008e2990004a
:101f7c0035fb07000004be003e299000ce299000de
:101f8c001e189000ae1890002ffb07000001be0039
:101f9c000800be009ef907003027980041279800e2
:101fac000000eb00001f9800390037000e1890005d
:101fbc004200dd0000004700220720000001410024
:101fcc006000b8000089be000e1890004200dd00d1
:101fdc00210720008e804000008040001004be00cd
:101fec000e189000d002b000c200dd00008020006e
:101ffc00008040001000be007e1990008e219000e1
:10200c0011fb07000001be000800be0080f90700ac
:10201c000e1990004211dd00020147002207b000aa
:10202c000089be000e1890004200dd002107200040
:10203c008e804000008040001004be000e189000fe
:10204c0063004000d002b000c200dd000080200020
:10205c00008040001000be003e219000ce21900078
:10206c00f9fa07000001be000800be0068f907007d
:10207c000e1990004211dd00020147002207b0004a
:10208c000089be000e1890000000e800001f9800a8
:10209c000e189000e20f5000c4ff34005e3990001f
:1020ac00ee3990003e389000ce3890001e3c9000e7
:1020bc00ae3c9000469920000202be000001be001a
:1020cc000800be00aafc0700e04c8000f14c800028
:1020dc00a04f8800b14f8800c04c8000d14c8000cc
:1020ec00604f8800714f8800204b8000314b80007e
:1020fc00702f980001379800a04a8000b14a8000e8
:10210c001037980021379800029820001e3090005c
:10211c00ae30900098fd0700644680007546800044
:10212c00004c8000114c80000001be000400be0079
:10213c00c5fa0700000f9800110f9800e04a8000c4
:10214c00f14a80003037980041379800c297200040
:10215c003e309000ce30900087fd0700e04b8000b1
:10216c00f14b80000001be000e0890009e0890000c
:10217c008cfd07003027980041279800a04b800069
:10218c00b14b80005037980061379800429820007e
:10219c005e309000ee30900066fd070008cabf006c
:1021ac00e04f500005003200e04e8000f14e800000
:1021bc00000f9800110f98000f0037008446800024
:1021cc0095468000204c8000314c80000001be0000
:1021dc000400be009cfa07000002be00e04e800026
:1021ec00f14e80000001be000400be0008f907009b
:1021fc00000f9800110f980009cabf00e04f500063
:10220c0005003200004f8000114f8000201798000d
:10221c00311798000f003700c4468000d546800067
:10222c00204c8000314c80000001be000400be0038
:10223c0085fa07000002be00004f8000114f80009d
:10224c000001be000400be00f1f807002017980042
:10225c00311798003e219000ce2190000e0890007e
:10226c009e089000e9f807002e119000be11900016
:10227c00e7f807007e2990008e319000e4f8070003
:10228c00701f980001279800c0428000d142800046
:10229c007e1990008e2190006bfa07007027980031
:1022ac00012f980020438000314380006011b8005a
:1022bc0065fa0700502798006127980000478000b6
:1022cc00114780007e1990008e2190005efa070065
:1022dc000002be00e0428000f14280000001be001e
:1022ec000400be0058fa07000002be00604e8000d9
:1022fc00714e80000001be000400be00c4f807004f
:10230c000004be005e219000ee2190007e20900023
:10231c008e289000bef807000001be000800be0029
:10232c00bbf807000002be0005f0a100404380008e
:10233c005143800018c0b3000001be000400be0071
:10234c00e5f90700e00f5000010035000044eb00f8
:10235c00e04f5400050032007e1890008e20900053
:10236c004007980051079800040037006040800037
:10237c007140800040079800510798000acabf00be
:10238c00e04f500005003200e04d8000f14d800020
:10239c0040179800511798000d00370060438000db
:1023ac00714380004e019000de01900026fa070078
:1023bc000002be00e04d8000f14d80000001be0027
:1023cc000400be0092f807004017980051179800bf
:1023dc00e0428000f14280004e119000de1190002e
:1023ec0019fa07007e2190008e29900088f80700ca
:1023fc005e219000ee21900085f807007037980060
:10240c00013f9800a0438000b143800018c0b30086
:10241c007e3190008e399000aff90700e00f50002c
:10242c00010034000044eb00e04f54000300320084
:10243c00a0438000b143800010003700c0438000ef
:10244c00d143800018c0b3007e3190008e399000cb
:10245c00a3f90700e00f500001003d000044eb0021
:10246c00e04f540003003200c0438000d143800091
:10247c00020037007e3090008e3890003e21900094
:10248c00ce21900062f8070070279800012f980069
:10249c00e0438000f14380007e2190008e29900063
:1024ac00e9f90700302f9800412f98006000b80020
:1024bc005027980061279800004480001144800048
:1024cc007e2190008e299000dff907000002be00eb
:1024dc0020448000314480000001be000400be0096
:1024ec00d9f907000002be00804e8000914e80009a
:1024fc000001be000400be0045f807000004be0049
:10250c005e219000ee2190003e289000ce28900095
:10251c003ff807000001be000800be003cf80700b1
:10252c000002be0005f0a1006044800071448000f0
:10253c0018c0b3000001be000400be0066f907001d
:10254c00e00f5000010035000044eb00e04f540058
:10255c00050032007e2090008e28900060079800c5
:10256c007107980004003700404080005140800003
:10257c0060079800710798000bcabf00e04f50002d
:10258c0005003200004e8000114e8000601798004c
:10259c00711798000d003700804480009144800032
:1025ac006e019000fe019000a7f907000002be002a
:1025bc00004e8000114e80000001be000400be00e1
:1025cc0013f80700601798007117980020448000da
:1025dc00314480006e119000fe1190009af90700b2
:1025ec003e299000ce29900009f807000001be009a
:1025fc005e209000ee20900005f807005027980010
:10260c0061279800c0448000d144800018c0b300fa
:10261c005e219000ee2190002ff90700e00f500092
:10262c00010034000044eb00e04f54000300320082
:10263c00c0448000d144800010003700e04480008a
:10264c00f144800018c0b3005e219000ee21900090
:10265c0023f90700e00f500001003d000044eb009f
:10266c00e04f540003003200e0448000f14480004d
:10267c00020037005e209000ee2090007e29900032
:10268c008e319000e2f7070070279800012f980018
:10269c007e2090008e28900008fa0700302f9800ba
:1026ac00412f98007e2090008e289000b7f80700ec
:1026bc0070279800012f98007e2190008e299000a1
:1026cc001e189000ae1890005ff907000004be00c1
:1026dc00804b8000914b80003e299000ce299000c9
:1026ec0059f907000001be000800be00c7f707003b
:1026fc00701f980001279800804b8000914b800040
:10270c007e2190008e2990004ff907000004be0036
:10271c003e299000ce2990001e189000ae18900013
:10272c0049f907000001be000800be00b8f7070019
:10273c0030279800412798000000eb00001f9800fc
:10274c00390037000e1890004200dd0000004700f1
:10275c00e2072000000141006000b8000089be00c3
:10276c000e1890004200dd00e10720008e80400032
:10277c00008040001004be000e1890009003b000c2
:10278c00c200dd0000802000008040001000be0070
:10279c007e1990008e2190002bf907000001be00dd
:1027ac000800be009af707000e1990004211dd00d8
:1027bc0002014700e207b0000089be000e1890002d
:1027cc004200dd00e10720008e80400000804000c8
:1027dc001004be000e189000630040009003b0007f
:1027ec00c200dd0000802000008040001000be0010
:1027fc003e219000ce21900013f907000001be008d
:10280c000800be0082f707000e1990004211dd008f
:10281c0002014700e207b0000089be000e189000cc
:10282c000000e800001f98000e189000e20f500006
:10283c00c4ff34003e819000ce8190001e80900039
:10284c00ae8090007e3c90008e849000469a2000d2
:10285c000202be000001be000800be00c4fa070060
:10286c00604d8000714d8000e04f8800f14f880072
:10287c00a04c8000b14c8000c04f8800d14f880024
:10288c00004d8000114d8000804f8800914f8800d2
:10289c00404d8000514d8000204f8800314f880002
:1028ac00204d8000314d8000005088001150880070
:1028bc00804d8000914d8000404f8800514f880022
:1028cc000040eb0004eab700044580001545800089
:1028dc00804c8000914c80000001be000400be00c2
:1028ec00d9f807002e099000be09900048f70700a0
:1028fc00a04e8800b14e88000040eb0005eab700fe
:10290c004445800055458000804c8000914c8000ef
:10291c000001be000400be00cbf807004e09900079
:10292c00de0990003af70700c04e8800d14e8800af
:10293c001e289000ae289000204e8800314e880052
:10294c000040eb0006eab7002041800031418000d6
:10295c001e01be00bcf807006e099000fe09900035
:10296c002bf70700a04d8800b14d88005e28900021
:10297c00ee289000404e8800514e88000040eb003d
:10298c0007eab70040428000514280002e019000bf
:10299c00be019000acf807000e1190009e11900043
:1029ac001bf70700c04d8800d14d88000040eb009c
:1029bc0008eab7008446800095468000204c8000d1
:1029cc00314c80000001be000400be009ef80700e0
:1029dc000e0990009e0990000df70700e04e88004c
:1029ec00f14e88000040eb0009eab700c4468000b5
:1029fc00d5468000204c8000314c80000001be0088
:102a0c000400be0090f807002e119000be1190003b
:102a1c00fff60700004f8800114f88007e309000b1
:102a2c008e389000604e8800714e88000040eb009c
:102a3c000aeab70060438000714380004e019000a9
:102a4c00de01900080f807004e119000de1190001e
:102a5c00eff60700e04d8800f14d88005e209000f5
:102a6c00ee209000804e8800914e88000040eb00d4
:102a7c000beab70080448000914480006e01900006
:102a8c00fe01900070f807006e119000fe1190008e
:102a9c00dff60700004e8800114e88004f04be0080
:102aac000080fa00000006000000fa004000200040
:102abc00ae040700e04d84008000eb0001087800b4
:102acc00820320008000eb00c09720000afa070068
:102adc00820520008000eb00409b200006fa0700d6
:102aec006000b800604a8800714a88006000b80035
:102afc00804a8800914a88006000b800a04a88008b
:102b0c00b14a88006000b800c04a8800d14a8800e9
:102b1c006000b800e04a8800f14a88006000b80004
:102b2c00004b8800114b88006000b800204b8800d7
:102b3c00314b88006000b800404b8800514b880036
:102b4c006000b800604b8800714b88006000b800d2
:102b5c00804b8800914b88006000b800a04b880027
:102b6c00b14b88006000b800c04b8800d14b880086
:102b7c00e0478000f1478000604a8800714a880075
:102b8c000048800011488000204f8800314f880099
:102b9c002048800031488000404f8800514f880009
:102bac004048800051488000804a8800914a880043
:102bbc006048800071488000a04a8800b14a8800b3
:102bcc008048800091488000c04a8800d14a880023
:102bdc00a0488000b1488000e04a8800f14a880093
:102bec00c0488000d1488000004b8800114b880001
:102bfc00e0488000f1488000204b8800314b880071
:102c0c000049800011498000404b8800514b8800de
:102c1c002049800031498000604b8800714b88004e
:102c2c004049800051498000804b8800914b8800be
:102c3c006049800071498000604f8800714f8800a6
:102c4c008049800091498000804f8800914f880016
:102c5c00a0498000b1498000a04f8800b14f880086
:102c6c00c0498000d1498000c04f8800d14f8800f6
:102c7c00e0498000f1498000a04b8800b14b8800ee
:102c8c00004a8000114a8000e04f8800f14f880014
:102c9c00204a8000314a8000005088001150880082
:102cac00404a8000514a8000c04b8800d14b8800bc
:102cbc002045800031458000a04e8800b14e880030
:102ccc006045800071458000c04e8800d14e880060
:102cdc00c0408000d1408000204e8800314e8800da
:102cec004041800051418000a04d8800b14d8800ca
:102cfc000042800011428000404e8800514e8800f6
:102d0c006042800071428000c04d8800d14d880027
:102d1c00a0468000b1468000e04e8800f14e88004d
:102d2c00e0468000f1468000004f8800114f88007b
:102d3c000043800011438000604e8800714e880073
:102d4c008043800091438000e04d8800f14d880065
:102d5c004044800051448000804e8800914e880091
:102d6c00a0448000b1448000004e8800114e8800c1
:102d7c0010c0b30004eab70010c0b30005eab700f6
:102d8c0010c0b30006eab70010c0b30007eab700e2
:102d9c0010c0b30008eab70010c0b30009eab700ce
:102dac0010c0b3000aeab70010c0b3000beab700ba
:102dbc000080fa00000006000000fa000080fa0013
:102dcc00000006000000fa00d60007000101070011
:102ddc00a60007006000b800604b8800714b8800ab
:102dec006000b800204b8800314b880000002000a8
:102dfc0081242400804a8800914a88000000200029
:102e0c0081242400804b8800914b880000582200bc
:102e1c002b030700e0042000201088000f0007009f
:102e2c0078010700d962a900409c2000302188005d
:102e3c00409c200030228800409c200030238800d9
:102e4c00409c200030248800409c200030258800c5
:102e5c00409c200030268800ffff37000000fa005d
:102e6c0031e2a90031a2a9003182a9003162a90086
:102e7c0081118000f0cf2f0000806000801188004d
:102e8c0030e2a80030c2a90030a2a9003082a9000b
:102e9c008111800090ff2f0000806000801188005d
:102eac003002a9003062a90000402400900588007f
:102ebc0091118000f0f32f000080600090118800c9
:102ecc003222a900a0012000c011880031e2a80024
:102edc003342a8000080fa00000006001200fa003d
:102eec00000f98006000b800008fbe000e00780044
:102efc004000b000050009000018eb005eb0970020
:102f0c00a2002000800078000e007800e3f8070093
:102f1c00800078000e089000fff807000e08900063
:102f2c0008f907008e089000008040002200200065
:102f3c00619b2800e8f807006eb09700a200200003
:102f4c00800078000e007800d4f80700800078002c
:102f5c000e089000f0f807000e089000f9f8070032
:102f6c008e0890000080400022002000619b280009
:102f7c00d9f807007eb09700a200200080007800ee
:102f8c000e007800c5f80700800078000e0890004d
:102f9c00e1f807000e089000eaf807008e08900090
:102fac000080400022002000619b2800caf8070026
:102fbc000eb89700a2002000800078000e00780068
:102fcc00b6f80700800078000e089000d2f80700d1
:102fdc000e089000dbf807008e089000008040007f
:102fec0022002000619b2800bbf807001eb8970048
:102ffc00a2002000800078000e007800a7f80700df
:10300c00800078000e089000c3f807000e089000ae
:10301c00ccf807008e0890000080400022002000b1
:10302c00619b2800acf807002eb89700a200200086
:10303c00800078000e00780098f807008000780077
:10304c000e089000b4f807000e089000bdf80700b9
:10305c008e0890000080400032002000819b2800e8
:10306c009df807000080fa00000006000000fa003e
:10307c0001e4a90050c7a80051a7a800813a80001c
:10308c00f08f2f0080806000001020000080700006
:10309c00803a880051e7a80000000000813a8000c7
:1030ac000000240000806000e00f5000fbff3200a5
:1030bc002124a9004124a9006124a9008124a9008c
:1030cc00a124a900c124a90023e4a80043e4a8007a
:1030dc0063e4a80083e4a800a3e4a800c3e4a80068
:1030ec0040772200202088000000eb00402188005f
:1030fc000000eb00402288000000eb004023880019
:10310c000000eb00402488000000eb004025880004
:10311c000000eb004026880001e4a8000080fa00c3
:10312c00000006000000fa00200f2000303a880052
:10313c00213a8000f0f32f0000806000203a8800d4
:10314c00213a800000fe2f00008060007000b30068
:10315c00203a88000000eb00403a880040a7a90004
:10316c001200200080072000a109200033742000e9
:10317c00804978008149780082497800120020004b
:10318c006004200071052000237420008049780021
:10319c00814978008249780000000000113a8000d3
:1031ac00000027008080600000002100808f50000c
:1031bc00faff3a0000000000113a800000022000e3
:1031cc0000806000e00f5000fbff32000080fa002e
:1031dc00000006000000fa0005e1a9000421a90086
:1031ec0004c1a900210880000003200000807000a9
:1031fc00200888000000eb0000088800001920005f
:10320c001008880021058000f0ff280080806000f5
:10321c000000210000807000200588008460a90057
:10322c009460a80005e1a80011e1a9001021a900f3
:10323c0010c1a900810880000003200000807000ec
:10324c00800888000000eb00300888000032200065
:10325c006008880031058000f0ff28008080600045
:10326c0000002100008070003005880084e0a90077
:10327c0094e0a80011e1a8000080fa00000006000c
:10328c003600f800809fbe00829fbe00849fbe0067
:10329c00869fbe000000fa0060aa2000a90007006b
:1032ac0030558000cf80de000ff60700a04a880062
:1032bc00b14a880040558000cf80de000af6070036
:1032cc00404b8800514b880050558000cf80de0069
:1032dc0005f60700e04a8800f14a88006055800036
:1032ec00cf80de0000f60700c04a8800d14a880073
:1032fc0070558000cf80de00fbf50700a04b8800e6
:10330c00b14b880080558000cf80de00f6f50700b9
:10331c00004b8800114b8800dd62a8008460a90076
:10332c000080fa004f03be004f02be004f01be00ea
:10333c004f00be003600f900004006003600f800d1
:10334c00809fbe00829fbe00849fbe00869fbe00f1
:10335c00881f78000200fa00f08747007080570041
:10336c0061aa200007000900311878000001b100a3
:10337c00e0a02000d9fe0700f08757000040eb00ca
:10338c00004f78000c0037001e4078008080fb0056
:10339c00e0a0200000804000104078000000fb00fe
:1033ac0093f40700000000008bf40700e04f50007e
:1033bc00fdff3a001e4fe8009e4078000184fb00a0
:1033cc00e0a02000dff70700800f5400eeff39006b
:1033dc00020820008000eb00e0a02000c6f70700e8
:1033ec0084e0a9000080fa004f0478004f03be006f
:1033fc004f02be004f01be004f00be003600f90068
:10340c00004006000000fa0010c0b300e7000700ff
:10341c000040eb00210007000040eb0034000700e7
:10342c000040eb00020007000080fa0000000600dc
:10343c000200fa00004f7800b1c6b30080c6b3009a
:10344c00fd010700b6eab7001e407800e04f5000bf
:10345c000600320061ab20009140780000c4b3003c
:10346c0000c07000b6eab7000500370061ab200061
:10347c0091407800f0cbb30000c06000b6eab70012
:10348c00b6cabf0000417800b1c6b30080c6b30015
:10349c00ac0107000080fa00000006000200fa00f0
:1034ac00004f7800b1c1b30080c6b300e201070041
:1034bc00b6eab700b6cabf008040780000ceb300b1
:1034cc0080c060001e4178000280fb004300dd00dc
:1034dc000040780000c0700000417800b1c1b3001a
:1034ec0080c6b300970107000080fa0000000600b8
:1034fc000200fa00004f7800c1c1b30080c6b300cf
:10350c00cd010700b6eab700b6cabf00804078000c
:10351c0000ceb30080c060001e4178000280fb002a
:10352c004300dd000040780000c0700000417800ce
:10353c00c1c1b30080c6b300820107000080fa004d
:10354c00000006000200fa00000f7800b1c3b300bf
:10355c0080c6b300b8010700b6eab700c1c3b30018
:10356c0080c6b300b4010700b7eab700d1c3b300fb
:10357c0080c6b300b0010700b8eab700e1c3b300de
:10358c0080c6b300ac010700b9eab700f1c3b300c1
:10359c0080c6b300a8010700baeab70001c4b300a3
:1035ac0080c6b300a4010700bbeab70031c4b30066
:1035bc0080c6b300a0010700bceab70041c4b30049
:1035cc0080c6b3009c010700bdeab70051c4b3002c
:1035dc0080c6b30098010700beeab70061c4b3000f
:1035ec0080c6b30094010700bfeab70071c4b300f2
:1035fc0080c6b30090010700c0eab70081c4b300d5
:10360c0080c6b3008c010700c1eab700b6cabf0080
:10361c000080fb00c800dd00b7cabf000080fb00c3
:10362c00808070001e00780001087800b8cabf00c6
:10363c000080fb00c800dd00b9cabf000080fb00a1
:10364c00808070001e00780011009800bacabf007c
:10365c000080fb00c800dd00bbcabf000080fb007f
:10366c00808070001e00780021009800bccabf004a
:10367c000080fb00c800dd00bdcabf000080fb005d
:10368c00808070001e00780031009800becabf0018
:10369c000080fb00c800dd00bfcabf000080fb003b
:1036ac00808070001e00780041009800c0cabf00e6
:1036bc000080fb00c800dd00c1cabf000080fb0019
:1036cc00808070001e007800510098009e007800e9
:1036dc0010c0b300e04898000080fa00000006001b
:1036ec000200fa00000f780011c4b30080c6b300ca
:1036fc0051010700b6eab70021c4b30080c6b3007d
:10370c004d010700b7eab700b6cabf000080fb0046
:10371c00c800dd00b7cabf000080fb0080807000cd
:10372c001e007800610098000080fa00000006007e
:10373c000200fa00004f7800b1c6b30080c6b30097
:10374c003d010700b6eab7001e407800e04f50007c
:10375c0004003a00b6cabf000034a000b6eab700b5
:10376c000500370061ab20009140780070cfb300aa
:10377c0000c06000b6eab700b6cabf0000417800ce
:10378c00b1c6b30080c6b300ee0007000080fa009b
:10379c00000006000000fa0051c7b30080c6b30059
:1037ac00250107000080fa00000006000200fa0064
:1037bc00004f7800b1c6b30080c6b3001e010700ed
:1037cc00b6eab700b6cabf008040780080cfb3001d
:1037dc0080c060001e40780000c07000004178007e
:1037ec00b1c6b30080c6b300d60007000080fa0053
:0437fc0000000600c3
:020000040000fa
:10380000a60a000010000000000000000e0a0000e0
:103810008000000002000000000000000000000026
:103820000000000000000000000000000000000098
:103830000000000000000000000000000000000088
:103840000000000000000000000000000000000078
:103850000000000000000000000000000000000068
:103860000000000000000000000000000000000058
:103870000000000000000000000000000000000048
:103880000000000000000000000000000000000038
:103890000000000000000000000000000000000028
:1038a0000000000000000000000000000000000018
:1038b0000000000000000000000000000000000008
:1038c000000000008e0a0000180000000000000048
:1038d0004c090000c20000000000000000080000c9
:1038e0004c01000002000000000000000000000089
:1038f00000000000000000000000000000000000c8
:10390000803f0000000000000000000000cdcc005f
:10391000cc3df30066df3f006f1203003a00000069
:103920000000db000f494000db0f4900c000000031
:10393000803f6f0012833a0000000000000000008a
:103940000000f30066df3f006f1203003a00000042
:103950000000db000f494000db0f4900c000000001
:10396000803f0000000000000000000000cdcc00ff
:10397000cc3df30066df3f006f1203003a00000009
:103980000000db000f494000db0f4900c0000000d1
:10399000803f6f0012833a0000000000000000002a
:1039a0000000f30066df3f006f1203003a000000e2
:1039b0000000db000f494000db0f4900c06f120020
:1039c000033a0000000000006f1203003a000000fc
:1039d00000006f0012833a00000080003f000000ea
:1039e00000bf00000000bf000000000000d7b300cf
:1039f0005d3fd700b35dbf0000008000bf6f1200c5
:103a0000033a0000000000006f1203003a000000bb
:103a100000006f0012833a00000080003f000000a9
:103a200000bf00000000bf000000000000d7b3008e
:103a30005d3fd700b35dbf00000000000000000044
:103a40000000000000000000000000000000000076
:103a50000000000000000000000000000000000066
:103a60000000000000000000000000000000000056
:103a70000000000000000000000000000000000046
:103a80000000000000000000000000000000000036
:103a90000000000000000000000000000000000026
:103aa00000000000c40a0000020000000000000046
:103ab000b60a00000e00000000000000c60a000068
:0c3ac000020000000000000000000000f8
:020000040000fa
:103acc000400fa00100798000000eb00000f7800cb
:103adc00c4cabf00e14f50001700320007e2a90032
:103aec001e00900000004000010020000001be00fc
:103afc0000082f00a12f2000e8f307000000780039
:103b0c000080e90020108800201080000080e80070
:103b1c0000004000010020000001be0000082f0042
:103b2c00a12f2000ddf30700000f780007e2a800aa
:103b3c0010c0b300c4eab7001e0078000080fa0081
:103b4c00000006000400fa00004f780011479800ae
:103b5c00224798009cf20700000000003010800003
:103b6c0061006000e00f5000fcff3a008620a900c5
:103b7c001e407800004040007df20700000000006d
:103b8c004010800061006000e00f5000fcff3a0024
:103b9c00000000003004800062006000e00f500064
:103bac00fcff32008620a9001e40900070f2070036
:103bbc00000000004010800061006000e00f500029
:103bcc00fcff3a000000000030048000620060003e
:103bdc00e00f5000fcff32008620a9002e40900020
:103bec0063f20700000000004010800061006000dc
:103bfc00e00f5000fcff3a00000000003004800091
:103c0c0062006000e00f5000fcff32008620a9002b
:103c1c006ff20700000000003010800064006000ac
:103c2c00e00f5000fcff3a003cf2070010c0b3005c
:103c3c000080fa00000006000400fa0020479800fb
:103c4c00314798000040eb00004f78005ef207000f
:103c5c00000000003010800061006000e00f500098
:103c6c00fcff3a002e4090000040400040f207005c
:103c7c00000000004010800061006000e00f500068
:103c8c00fcff3a000000000030048000620060007d
:103c9c00e00f5000fcff32008620a9003e4090004f
:103cac0033f207000000000040108000610060004b
:103cbc00e00f5000fcff3a000000000030048000d0
:103ccc0062006000e00f5000fcff32008620a9006b
:103cdc003bf2070000000000301080006200600022
:103cec00e00f5000fcff3a002e40900000404000d6
:103cfc000040e8001ef207000000000040108000a9
:103d0c0061006000e00f5000fcff3a000000000072
:103d1c003004800062006000e00f5000fcff3200b5
:103d2c008620a9000cf20700004f780021f2070052
:103d3c00000000003010800070006000e00f5000a8
:103d4c00fcff3a0022f20700000000003010800057
:103d5c0064006000e00f5000fcff3a00eff1070038
:103d6c001e4078000080fa00000006000200fa00f5
:103d7c00000f780095000700b0548800c1548800eb
:103d8c00ab00070010558800215588004f00070034
:103d9c00705488008154880065000700d054880056
:103dac00e15488006900070090548800a1548800f1
:103dbc007f000700f0548800015588000080fa004d
:103dcc00000006000400fa00008fbe007054800052
:103ddc00815480000001be001e00be003ef30700af
:103dec00e00f50000700320090548000a154800076
:103dfc000001be001e00be0037f30700e00f5000ac
:103e0c0002003a0010c0b300010037000040eb0084
:103e1c000080fa00000006000400fa00008fbe00cb
:103e2c00d0548000e15480000001be001e00be0092
:103e3c0029f30700e00f500007003200f054800017
:103e4c00015580000001be001e00be0022f30700d9
:103e5c00e00f500002003a0010c0b3000100370020
:103e6c000040eb000080fa00000006000400fa009d
:103e7c00008fbe001e01be001e00be001df3070019
:103e8c00e00f50000200320010c0b30001003700f8
:103e9c000040eb000080fa00000006000400fa006d
:103eac00008fbe001e01be001e00be0011f30700f5
:103ebc00e00f50000200320010c0b30001003700c8
:103ecc000040eb000080fa00000006000e00fa0033
:103edc0000022000200798006000b800008fbe0090
:103eec00ae00900000022000808f500003003a00ca
:103efc000f000700008fbe000a00370000002000f2
:103f0c0001ff270050079800610798006000b80077
:103f1c0030079800410798003e009000ce009000ba
:103f2c00008fbe001e00be000080fa0000000600dc
:103f3c000400fa000000200001f82700008fbe00ea
:103f4c001e00be000080fa00000006000e00fa0001
:103f5c0000022000200798006000b800008fbe000f
:103f6c00ae00900000022000808f500003003a0049
:103f7c000f000700008fbe000a0037000000200071
:103f8c0001ff2f0050079800610798006000b800ef
:103f9c0030079800410798003e009000ce0090003a
:103fac00008fbe001e00be000080fa00000006005c
:103fbc000400fa000000200001f82f00008fbe0062
:103fcc001e00be000080fa00000006000e00fa0081
:103fdc0000022000200798006000b800008fbe008f
:103fec00ae00900000022000808f500003003a00c9
:103ffc000f000700008fbe000a00370000002000f1
:10400c0081ff2f0050079800610798006000b800ee
:10401c0030079800410798003e009000ce009000b9
:10402c00008fbe001e00be000080fa0000000600db
:10403c000400fa006000b800008fbe0000002000f1
:10404c0001fc2f00008fbe001e00be000080fa0095
:04405c00000006005a
:020000040000fa
:0200000401f009
:04000c00f8ff0000f9
:020000040000fa
:0200000401f009
:040010007dff000070
:020000040000fa
:0200000401f009
:040014007fff00006a
:020000040000fa
:0200000401f009
:04001c00dfff000002
:00000001FF
